:020000040002F8
:10700000C0630020C5730200CD730200CF7302007D
:10701000D1730200D3730200D57302000000000098
:10702000000000000000000000000000D773020014
:10703000D973020000000000DB730200DD73020060
:10704000F17E0200DF730200398302002981020011
:1070500039810200DF730200017C0200DF7302004D
:10706000DF730200DF730200DF730200DF730200D0
:10707000DF730200DF730200DF730200DF730200C0
:10708000DF730200497F0200DF730200DF7302003A
:10709000DF730200DF73020059810200DF73020018
:1070A000DF730200DF730200DF730200DF73020090
:1070B000DF730200DF730200000000000000000028
:1070C000DF730200DF730200DF73020049810200F8
:1070D000DF730200DF730200DF730200DF73020060
:1070E000DF730200DF730200DF73020000000000A4
:1070F00000000000DF73020000000000DF730200E8
:10710000000000000000000000000000000000007F
:10711000000000000000000000000000000000006F
:10712000000000000000000000000000000000005F
:10713000000000000000000000000000000000004F
:10714000000000000000000000000000000000003F
:10715000000000000000000000000000000000002F
:10716000000000000000000000000000000000001F
:10717000000000000000000000000000000000000F
:1071800000000000000000000000000000000000FF
:1071900000000000000000000000000000000000EF
:1071A00000000000000000000000000000000000DF
:1071B00000000000000000000000000000000000CF
:1071C00000000000000000000000000000000000BF
:1071D00000000000000000000000000000000000AF
:1071E000000000000000000000000000000000009F
:1071F000000000000000000000000000000000008F
:10720000DFF810D000F03CFC0048004749BF020006
:10721000AFF30080C063002030B450E8012F93B278
:10722000C48923448489A34228BF1B1B0489A34229
:1072300002BFBFF32F8F002007E0C3EA020340E83C
:107240000134002CE9D14FF001000A6030BC7047D6
:1072500050E8012FC2EA024240E801210029F7D19B
:10726000704730B450E8022F1FFAA2F3C488A3423B
:1072700002BFBFF32F8F00200DE0C489234484890F
:10728000A34228BF1B1BC2EA034340E80234002C80
:10729000E8D14FF001000A6030BC704750E8022F7F
:1072A000C2EA224240E802210029F7D17047034692
:1072B00053E8022FD988B2EB324F4FF0000017BFCE
:1072C00092B241EA014142EA014104E05A68B2EB5C
:1072D000324F08BF012043E80212002AE8D170476C
:1072E00030B4044654E8000F0D4644E80053002B28
:1072F000F8D1156030BC704730B4044654E8000F34
:1073000040EA010544E80053002BF7D1156030BC7A
:10731000704730B4044654E8000F00EA010544E821
:107320000053002BF7D1156030BC704730B40446D1
:1073300054E8000F80EA010544E80053002BF7D120
:10734000156030BC704730B4044654E8000F00EBC1
:10735000010544E80053002BF7D1156030BC70479D
:1073600030B4044654E8000FA0EB010544E8005394
:10737000002BF7D1156030BC704770B404464FF055
:10738000000054E8006F0D68AE4207BF44E80023D8
:10739000012044E800630E60002B1CBF0020F0E7D2
:1073A00070BC704730B4044654E8000F88422CBFCC
:1073B000451A054644E80053002BF5D1156030BC52
:1073C000704700000648804706480047FEE7FEE792
:1073D000FEE7FEE7FEE7FEE7FEE7FEE7FEE7FEE785
:1073E0005D810200017202002DE9F05F0546002078
:1073F00092469B4688460646814640241BE0284626
:1074000041464746224600F01BFA53465A46C01AE8
:10741000914110D311461846224600F016F82D1A55
:1074200067EB01084F4622460120002100F00DF8CD
:1074300017EB00094E41201EA4F10104DFDC484691
:1074400031462A464346BDE8F09F202A04DB203A15
:1074500000FA02F1002070479140C2F1200320FAA7
:1074600003F319439040704740EA01039B0703D0A0
:1074700009E008C9121F08C0042AFAD203E011F873
:10748000013B00F8013B521EF9D27047D2B201E035
:1074900000F8012B491EFBD270470022F6E710B519
:1074A00013460A4604461946FFF7F0FF204610BD72
:1074B0002DE9FE4F804681EA0300C00F0C46009084
:1074C00021F0004123F00045B8EB0200A94105D2AC
:1074D0004046214690461C460B46024623F000409B
:1074E000104347D0270DC7F30A00C3F30A51029097
:1074F000401A019040286BDAC3F3130040F4801B5C
:107500000098924620B10023D2EB030A63EB0B0BE9
:1075100001985946C0F140025046FFF796FF0646D3
:107520000D4650465946019A00F09AF910EB0800B2
:107530006141002487EA115284EAE7731A4340D07C
:10754000009A62B3019A012A4FEA075215DC001B28
:1075500061EB02014FF0004202EA0752CDE900421E
:10756000001C41F5801132462B4600F0D1F903B0E2
:10757000BDE8F08F40462146F9E7001B61EB0201B0
:10758000001C41F5801300185B412018A2F500177C
:1075900047EB030140EAD570B6196D4111E06D0863
:1075A0004FEA360645EAC0754FEA0752001B61EB09
:1075B0000201001C41F5801149084FEA3000001912
:1075C000514132462B4603B0BDE8F04F00F091B96F
:1075D0000098012240000023D0EB020263EBE0732D
:1075E000009821464FEAE074B8EB000061EB04011B
:1075F000E9E783F000435BE781F0004158E72DE9BC
:10760000FE4F81EA030404F0004421F0004100949D
:107610004FF0000B23F0004350EA01045ED052EA21
:1076200003045BD0C3F30A54C1F30A552C44A4F2FB
:10763000F3340194A0FB0254C1F3130141F480110F
:10764000C3F3130343F4801301FB024400FB034E16
:10765000840A970A44EA815447EA8357A4FB0768DF
:1076600002958D0A05FB07854FEA932C04FB0C5409
:107670002705029D4FEA065847EA1637B5EB08057D
:107680006EEB070C870E920E47EA811742EA8312CF
:10769000A7FB0201B6EB0B0164EB00042B0D43EAE0
:1076A0000C335E1844EB1C50DA465146E7FB0201EE
:1076B000C5F313044FEA0B3343EA14534FEA043281
:1076C000019C43EA0603A4F10C040294009CCDE95A
:1076D00000B400F01DF903B0BDE8F08F00200146B2
:1076E000F9E72DE9F04D81EA030404F0004B21F0A5
:1076F000004514464FF0000A23F0004150EA05020D
:1077000020D054EA01021DD0C5F30A570246C5F342
:107710001303C1F31300C1F30A5640F4801543F478
:107720008013A7EB0608101BD64608F2FD3873EB52
:10773000050002D308F1010801E092185B41B8F19D
:10774000000F03DA00200146BDE8F08D00204FF461
:107750008011064684460EE0171B73EB050705D320
:10776000121B63EB050306434CEA010C49084FEA80
:10777000300092185B4150EA0107EDD152EA030054
:1077800012D082EA040083EA0501084305D0101BE9
:10779000AB4106D20122002306E000224FF0004355
:1077A00002E06FF0010253101AEB06004CEB085197
:1077B00010EB0A0041EB0B01BDE8F04D00F099B869
:1077C0000EB5C10F80EAE0700844CA07002140F2FC
:1077D00033438DE80E000A460B4600F099F803B0DB
:1077E00000BD00F0004230F000400AD0C10D01F5AC
:1077F0006071C0F3160042EA0151C208400711430C
:10780000704700200146704701F0004330B421F07A
:10781000004150EA010206D00A0DA2F56072C1F3E0
:107820001301002A02DC30BC00207047440F44EAF8
:10783000C104C100E01830BC00EBC25000F022B817
:10784000202A04DB203A21FA02F00021704721FAB5
:1078500002F3D040C2F1200291400843194670471C
:10786000202A06DBCB17203A41FA02F043EAE07304
:1078700006E041FA02F3D040C2F1200291400843F1
:10788000194670470029A8BF7047401C490008BF2F
:1078900020F00100704710B4B0FA80FC00FA0CF040
:1078A00050EA010404BF10BC704749B1CCF1200478
:1078B00021FA04F411FA0CF118BF01212143084305
:1078C000A3EB0C01CB1D4FEA00614FEA102042BF31
:1078D000002010BC704700EBC35010440029A4BF27
:1078E00010BC7047401C490008BF20F0010010BCCC
:1078F000704710B5141E73F1000408DA401C41F102
:10790000000192185B411A4301D120F0010010BD23
:107910002DE9F04D92469B4611B1B1FA81F202E099
:10792000B0FA80F220329046FFF78FFD04460F46F2
:1079300040EA0A0041EA0B0153465A46084313D075
:10794000114653EA010019D0C8F140025046FFF732
:1079500077FF05460E46504659464246FFF775FDED
:10796000084305D0012004E020463946BDE8F08DEB
:107970000020054346EAE0762C4337430A98630526
:10798000E40AA0EB08000022FD0A44EA47540A304A
:1079900002D500200146E9E7010510196941DDE93A
:1079A000084500196941BDE8F04DA2E72DE9F04D09
:1079B00000231A461B1A8A4103DB00200146BDE85A
:1079C000F08DC1F30A52C1F3130141F480154FF059
:1079D000000BD10702D100186D41521E002704464A
:1079E00040F2FF11384601EB620A3E4680460246ED
:1079F00000204FF48011FFF723FFC2197141BB181B
:107A000046EB0100B4EB030C75EB000C04D3E41A55
:107A100065EB000517460E46241908F101006D417B
:107A200080463428E3DDF91946EB0600091BA8411E
:107A300003D24FF0FF32134601E0002213461BEB46
:107A4000070046EB0A51BDE8F04DFFF752BF0000BA
:107A500030B5041E71F1000404DB4FF000444042D5
:107A600064EB0101141E73F1000405DB1C464FF0AA
:107A70000043524263EB04038B4208BF824230BD95
:107A8000064C074D06E0E06840F0010394E807006B
:107A900098471034AC42F6D3FFF7B6FB8C090300CD
:107AA000AC09030070B58C1810F8015B15F00703E2
:107AB00001D110F8013B2A1106D110F8012B03E087
:107AC00010F8016B01F8016B5B1EF9D12B0705D48F
:107AD0000023521E0DD401F8013BFAE710F8013BD8
:107AE000CB1A921C03E013F8015B01F8015B521EF4
:107AF000F9D5A142D8D3002070BD0000F0B51C49D3
:107B00000020B1F93820B1F93C70C2F5804215B2BD
:107B1000184AB1F9366002F1C80302F5C87400BF13
:107B200022F8106023F8105024F81070401C6428CC
:107B3000F6DB0020C8660867074606460546486724
:107B400032F917C0664433F917C0654434F917C0D9
:107B50007F1C6044642FF3DB642296FBF2F3CB6658
:107B600095FBF2F390FBF2F0C1E91C30F0BD000090
:107B7000E82A0020A4330020F0B51F491F4A002046
:107B8000B1F93E60B1F94050B1F9427002F1C80359
:107B900002F5C87422F8106023F8105024F8107011
:107BA000401C6428F6DB002008844884A1F82400E7
:107BB00032F810500E8C35440D8433F810504E8C32
:107BC00035444D8434F810508E8C401C35448D84DF
:107BD0006428EDDBB1F92020642092FBF0F20A84E6
:107BE000B1F9222092FBF0F24A84B1F9242092FBF1
:107BF000F0F08884F0BD0000E82A00204C3100201D
:107C00002DE9FC410025DFF8948000954FF4807643
:107C100001242F460195304605F09CFC38B1D8F878
:107C20000403204203D0304605F08AFC2543361D6C
:107C300064007F1CB6B2082FEDD34FF4BE7420460B
:107C400005F088FC48B1204605F07AFC45F0004577
:107C50006A460221002005F093FB15F0FF0F16D0B5
:107C6000012600242E420ED008EB8401D1F8100525
:107C7000D1F81015C0F30520094AC1F3014152F8AB
:107C8000242002B190477600641C082CEAD3002D12
:107C900002DA684606F0F2FEBDE8FC8100600040B2
:107CA000783B002010B5252005F025FC2D2005F09F
:107CB00022FC2A2005F01FFC182005F01CFC1920CE
:107CC00005F019FC222005F016FC242005F013FC19
:107CD000262005F010FCBDE81040322006F042B925
:107CE0002DE9F04F7B4C2DED0A8B81B0B4F93A6051
:107CF0007742A787B4F9360020348146FFF760FD4C
:107D00009FED758B53EC182BFFF779FCFFF77CFD8B
:107D10000CEE100A04F1600585ED06CAB4F91800EE
:107D20000090FFF74DFD53EC182BFFF768FCFFF7B1
:107D30006BFD0BEE900A3046C5ED07BAFFF740FD2C
:107D400053EC182BFFF75BFCFFF75EFD0BEE100A00
:107D5000832685ED08BAB4F91E8098FBF6F0FFF78C
:107D60002FFD9FED5F9B53EC192BFFF7BAFC9FEDA6
:107D70005EAB53EC1A2BFFF742FCFFF745FD686240
:107D8000B4F920A09AFBF6F0FFF71AFD53EC192B7B
:107D9000FFF7A7FC53EC1A2BFFF731FCFFF734FD7C
:107DA000A862B4F922B09BFBF6F0FFF709FD53EC93
:107DB000192BFFF796FC53EC1A2BFFF720FCFFF76B
:107DC00023FDE862B4F84C10A9EB010000B2E0809A
:107DD000B4F850200099114409B221810091B4F8FF
:107DE0005410791A09B2618122888946A8EB0201F0
:107DF0000FB2A7816288AAEB020109B2E181A288D1
:107E00008A46ABEB02010FFA81F8A4F81080FFF765
:107E1000D7FC53EC182BFFF7F2FBFFF7F5FC2863B8
:107E20000098FFF7CDFC53EC182BFFF7E8FBFFF7AA
:107E3000EBFC68634846FFF7C3FC53EC182BFFF7D5
:107E4000DEFBFFF7E1FCA86397FBF6F0FFF7B8FC59
:107E500053EC192BFFF745FC53EC1A2BFFF7CFFB24
:107E6000FFF7D2FCE8639AFBF6F0FFF7A9FC53ECAE
:107E7000192BFFF736FC53EC1A2BFFF7C0FBFFF76B
:107E8000C3FC286498FBF6F0FFF79AFC53EC192B1F
:107E9000FFF727FC53EC1A2BFFF7B1FBFFF7B4FCFD
:107EA0002CEE0C0A68640BEEAB0A0BEE0B0A10EE1C
:107EB000100AFFF796FC41EC100B00F089FE51EC24
:107EC000100BFFF7A1FC686001B0BDEC0A8BBDE8A8
:107ED000F08F0000E82A0020000000000000203F92
:107EE000000000000080664000000060FB210940A7
:107EF00070B54FF48076304605F04AF8114CB50560
:107F000060B1304605F04BF80120C5F808036079F0
:107F100020B9012060712168002088474FF48276E3
:107F2000304605F035F800280AD0304605F037F81D
:107F30000220C5F808032168BDE870400120084709
:107F400070BD0000442D002002490248091F096845
:107F500000680847E42D002070B56C4C2DED088BAF
:107F6000F7EE008AB0EE00BAB0EE688AD4ED04AA4B
:107F700094ED05AA2AEEAA0A0AEE0A0A00EE4B8A36
:107F800018EE100AFFF72DFC94ED020AD4ED030A57
:107F900041EC190B20EE0A0A00EEAA0A10EE100AB4
:107FA000FFF71FFC9FED5AAB53EC1A2BFFF727FB93
:107FB00041EC100BB0EE491AF0EE691A00F008FD22
:107FC00051EC100BFFF720FC206594ED020AD4ED74
:107FD000040A94ED051A20EE200AD4ED030A00EEFF
:107FE000C10A10EE100AFFF7FCFB53EC1A2BFFF747
:107FF00006FB41EC100B00F0CFF951EC100BFFF732
:1080000003FCA064D4ED03BA94ED048A2BEEAB0A12
:1080100008EE080A40EE4B8A18EE900AFFF7E1FBE3
:1080200094ED020AD4ED050A41EC190B20EE2B0A5F
:1080300008EE200A10EE100AFFF7D3FB53EC1A2BC0
:10804000FFF7DDFA41EC100BB0EE491AF0EE691AB9
:1080500000F0BEFC51EC100BFFF7D6FB0646E064C7
:10806000206DFFF7BEFB9FED2C8B53EC182BFFF719
:10807000C6FA9FED2B9B53EC192BFFF732FBFFF752
:10808000C3FB00EE100AA4F1800584ED190ABDEED1
:10809000C00A10EE101AA166A5F850104842A5F8C3
:1080A0004E0030464A35FFF79CFB53EC182BFFF788
:1080B000A6FA53EC192BFFF714FBFFF7A5FB00EE14
:1080C000100A84ED170ABDEEC00A10EE100A2066F1
:1080D000503840422880A06CFFF783FB53EC182BEC
:1080E000FFF78DFA53EC192BFFF7FBFAFFF78CFB28
:1080F00000EE100A84ED150ABDEEC00A10EE100A5B
:10810000A0656880BDEC088B70BD0000682B002066
:1081100000000000000000400000000000806640F9
:1081200000000060FB2109400149024807F044BA01
:108130007C3C00200030004002494FF0402003F01A
:1081400028BE0000343C00200149024803F021BE53
:10815000583C00200030024005F0DCBD30B54FF047
:1081600080520023D2E94C10082906D1CC06C4F86D
:108170000C31C4F81031624C2360082955D1614B91
:108180001B68614C23605F4B1B1D1B68241D236013
:108190005C4B08331B68241D23605A4B0C331B684F
:1081A000241D2360574B10331B68241D2360554B3F
:1081B00014331B68241D2360524B18331B68524C28
:1081C000203423604F4B1C331B68241D23604D4B10
:1081D00020331B68241D23604A4B24331B68241D55
:1081E0002360484B28331B68241D2360454B2C33E8
:1081F0001B68241D2360434B30331B68424C4034C2
:108200002360404B34331B68241D23603D4B3833BF
:108210001B68241D23603B4B3C331B68241D2360DB
:10822000384B40331B68241D2360082904D1030008
:1082300002D1374C354B2360082904D1030002D109
:10824000344CFB232360082908D1030006D1324BAC
:1082500092F858521C6865F303041C60082904D185
:10826000030002D12D4C8B012360082906D12C4834
:108270000168C90702D06FF0010101602948016857
:1082800041F470010160BFF34F8FBFF36F8FD2E9EC
:108290004C104FF01022082906D1032804D9D2F837
:1082A0000802174920310860D2F80002002803DBD9
:1082B000D2F8040200281FDA012006F03DFA12214C
:1082C000C2F8001218480368002BFCD0C2F8041250
:1082D00001680029FCD0002006F02EFABFF34F8F72
:1082E00010487C380168114A01F4E06111430160D3
:1082F000BFF34F8F00BFFDE70E490D48086030BD4A
:10830000380500400404001020C5004048810300E7
:108310008C56004018F50040E40E004040960240A4
:108320000004004088ED00E000E401400400FA058C
:108330000090D003182E002001480068004700007C
:108340004C2D00200FB4054B10B503A9044A029828
:1083500000F056FD10BC5DF814FB00009FB5020054
:10836000F42D002003B401984100009850EAC12088
:1083700018BF04204A0D18BF40F0010040F2FF7200
:10838000B2EB515F08BF40F00200012808BF052092
:1083900002B070470000000070B5C1482DED020B1F
:1083A0002DED0E8B82B0119D25F000449FEDBEDBBC
:1083B0009FEDBFEB84423EDBA4F140511098A1F148
:1083C0007F6108430FD0BC48844202DC28D110985A
:1083D00030B39DED100B02B0BDEC0E8B02B0BDE8CA
:1083E000704000F0AEBC9DED100B53EC1D2B51EC1A
:1083F000100BFFF704F99DED100B41EC180B53EC3B
:108400001E2B51EC100BFFF7FAF853EC182BFFF76B
:108410004FF841EC100B02B0BDEC0E8B02B070BDFA
:10842000012000F0E7FC02B0BDEC0E8B02B0BDE80D
:10843000704000F09DBCA1489FEDA18B844256DAAC
:108440009DED100BB4F1795F0ADA51EC100BFFF7D8
:1084500089FF042808BF00F09BFC9DED100BDAE7B4
:1084600053EC102B51EC100BFFF7C9F841EC190B32
:1084700095480621B0EE490AF0EE690A784400F00A
:10848000E4FB53EC192B51EC100BFFF7B8F841EC5F
:108490001A0B8E48B0EE490AF0EE690A04217844BE
:1084A00000F0D3FB53EC192B51EC100BFFF7A7F89E
:1084B00053EC182BFEF7FCFF41EC100B51EC1A0BA0
:1084C00053EC102BFFF70DF9CDE900019DED000BEA
:1084D00053EC102B9DED100B51EC100BFFF78FF8A8
:1084E0009DED101B53EC112BFEF7E2FFD2E09DED4A
:1084F000100B51EC100B02F02FFE53EC182BFFF772
:108500007BF89FED730BCDE9000153EC102B9DED33
:10851000000B51EC100BFFF772F841EC190B6E4891
:108520000621B0EE490AF0EE690A784400F08DFBAE
:1085300053EC192B51EC100BFFF761F841EC1B0BBE
:108540006648B0EE490AF0EE690A0421784400F06A
:108550007CFB53EC192B51EC100BFFF750F853EC4C
:10856000182BFEF7A5FF41EC1C0B51EC190B06F084
:10857000F7FD41EC180B5A489FED5BABA04222DCA3
:1085800053EC1C2B51EC1B0BFFF7ABF8CDE90001B2
:108590009DED000B51EC180B53EC102BFFF72FF84F
:1085A00053EC182BFEF784FF53EC1A2BFFF727F838
:1085B00053EC1D2BFFF71DF853EC1E2BFFF71CF897
:1085C00041EC100B5FE08DED008B002000909DEDE5
:1085D000000B51EC180B53EC102BFEF769FF9DEDCF
:1085E000000B41EC1E0B53EC102B51EC100BFFF762
:1085F00006F853EC192BFEF7FFFF53EC1E2BFFF789
:1086000070F841EC190B53EC1C2B51EC1B0BFFF7D2
:1086100068F841EC1B0B53EC1A2B51EC190BFEF7CD
:10862000EEFF53EC1D2BFEF7E7FF41EC190B53EC6B
:108630001A2B51EC180BFEF7E2FF53EC1B2BFEF745
:10864000DEFF53EC192BFEF7D4FF9DED000B41EC40
:10865000180B53EC1A2B51EC100BFEF7D0FF9FEDCB
:10866000249B53EC192BFEF7C7FF41EC100B51EC88
:10867000180B53EC102BFEF7BCFF53EC192BFEF735
:10868000BBFF41EC100B002D3FF7C5AE51EC100BBA
:1086900081F0004141EC100BBDE60000000000003D
:1086A0000000F03F00000000075C143326A6913C58
:1086B000182D4454FB21F93F0000F07F0000E03FFB
:1086C000000000000000F03F187C0000267C000045
:1086D000000000000000E03F6A7B0000787B0000A3
:1086E0003333EF3F000000000000000000000040B6
:1086F000182D4454FB21E93F70B59B482DED020B2A
:108700002DED068B079D25F00044A04218DC97480C
:10871000844202DC0AD1069840B19DED060BBDEC07
:10872000068B02B0BDE8704000F00BBB002DCCBF43
:108730009FED8F0B9FED900BBDEC068B02B070BDD3
:108740008F48A04215DD8F48A042D8BF4FF0FF34BC
:1087500058DD9DED060B51EC100BFFF703FE0428CE
:1087600008BF00F015FB9DED060BBDEC068B02B0BB
:1087700070BD9DED060B51EC100B02F0EDFCCDE948
:10878000060181489FED828BA0423CDD8248A042D9
:108790001FDD00249FED82AB9DED060B53EC1A2BE1
:1087A00051EC100BFEF784FE9DED060B41EC190B0E
:1087B00053EC1A2B51EC100BFEF721FF53EC182B46
:1087C000FEF717FF53EC192BFEF78BFFCDE90601DF
:1087D00049E09DED060B012453EC182B51EC100BD6
:1087E000FEF766FE9DED060B41EC190B53EC182BC2
:1087F00051EC100BFEF7FDFE53EC192BFEF771FF49
:10880000CDE906012FE06848A0421FDD02249FED5C
:10881000689B9DED060B53EC192B51EC100BFEF7EA
:10882000EEFE53EC182BFEF743FE9DED060B41ECDC
:10883000180B53EC192B51EC100BFEF7DAFE53EC2E
:10884000182BFEF74EFFCDE906010CE09DED060B5F
:10885000032453EC102B9FED580B51EC100BFEF73B
:1088600040FFCDE906019DED060B53EC102B51ECBA
:10887000100BFEF7C4FE41EC180B53EC182BFEF75F
:10888000BEFE41EC190B4E480621B0EE490AF0EE4F
:10889000690A784400F0D9F953EC182B51EC100B0D
:1088A000FEF7ADFE41EC180B4648B0EE490AF0EE7B
:1088B000690A0521784400F0C8F953EC192B51ECF2
:1088C000100BFEF79CFE41EC100B51EC180B53EC17
:1088D000102B002C0EDAFEF7EBFD9DED061B53EC82
:1088E000112BFEF78CFE9DED061B53EC112BFEF7B2
:1088F00083FE35E0FEF7DCFD9DED061B53EC112BEE
:10890000FEF77DFE41EC100B2F48784400EBC400CD
:1089100090ED001B51EC100B53EC112BFEF769FE90
:108920009DED061B53EC112BFEF763FE41EC100B83
:108930002648784400EBC40090ED001B51EC100B6E
:1089400053EC112BFEF758FE41EC100B002DA2BF8B
:10895000BDEC068B02B070BD51EC100B81F00041F4
:1089600041EC100B01E70000000010440000F07F14
:10897000182D4454FB21F93F182D4454FB21F9BF15
:108980000000DC3F0000203E0000F33F000000003C
:10899000000000000000F03F0000E63F0000000083
:1089A00000000000000000400080034000000000C4
:1089B000000000000000F83F000000000000F0BFD1
:1089C000BA78000070780000FA770000B2770000F3
:1089D00070B56F4E2DED040B2DED048B82B0DDF8DC
:1089E00024C0DDE907235C422CF000411C4341EA2E
:1089F000D474069D22F00040B44205D86C422C434A
:108A000040EAD474B4420BD99DED081B9DED060BD2
:108A100002B0BDEC048B04B0BDE8704000F09BB91F
:108A2000ACF14054A4F17F641C430BD0022404EA4F
:108A3000AC7444EAD27405439FED578B9FED582BDD
:108A400007D015E09DED060B51EC100B00F016FE63
:108A500042E0002C11BF012C9DED060B02B0BDECD5
:108A6000048B04BF04B070BD022C38D0032C3BD063
:108A70000B439FED4D1B9FED4E0B0AD0B14218D119
:108A8000B04209D121F0804120F080400991079047
:108A90000FE0002A15DA10E0474B7B44002C08BF9A
:108AA00093ED000B0DD0012C10D0022C17D0032C0D
:108AB0001AD0B0421DD1002A03DAB0EE410AF0EE1E
:108AC000610A02B0BDEC048B04B070BD93ED000BE5
:108AD00051EC100B81F0004141EC100BF1E7B0EECE
:108AE000480AF0EE680AECE7B0EE420AF0EE620ADD
:108AF000E7E7401A00159FED329B3C28C8BF8DED7B
:108B0000000B17DCBCF1000FBCBF10F13C0F8DED6A
:108B1000009B0FDB9DED080B53EC102B9DED060B1E
:108B200051EC100BFEF7DDFD02F016FB00F0A6FD88
:108B3000CDE90001B4B1012C10D0022C9FED220B25
:108B400053EC102B9DED000B51EC100B19D0FEF7E0
:108B500050FD53EC182BFEF74CFDBDE7019880F05B
:108B6000004001909DED000B53EC192B51EC100BC4
:108B7000FEF76EFF04BF022000F03CF99DED000BF4
:108B80009FE7FEF736FD53EC182BFEF735FDA3E704
:108B90000000F07F00000000182D4454FB21094024
:108BA000182D4454FB2109C0182D4454FB21F9BF52
:108BB000182D4454FB21F93FE2760000000000002C
:108BC0000000000000000000075C143326A6A13C52
:108BD00000B52DED048BB0EE409AF0EE609A83B0B4
:108BE00051EC190BFEF7E2FE41EC180B18EE100ADF
:108BF00018EE901A8DED008B002818BF0120084355
:108C000020F00040C0F17F6000F1E040C00F14D0C0
:108C100019EE101A19EE900A8DED009B002918BF6D
:108C20000121084320F00040C0F17F6000F1E040E6
:108C3000C00F04BF012000F0DDF8B0EE480A03B019
:108C4000F0EE680ABDEC048B00BD70B504462DED56
:108C5000028B4D1E00EBC500B0EE408AF0EE608A3C
:108C600090ED000B35F0060017D053EC182B51ECAB
:108C7000100BFEF7C4FC41EC100B6D1E04EBC5009D
:108C800090ED001B51EC100B53EC112BFEF710FC78
:108C900041EC100B35F00600E7D1022D36D0042D43
:108CA0001CD0062D1CBFBDEC028B70BD53EC182BE5
:108CB00051EC100BFEF7A3FC94ED0A1B53EC112BA7
:108CC000FEF7F6FB53EC182BFEF799FC94ED081B0E
:108CD00053EC112BFEF7ECFB41EC100B53EC182B73
:108CE00051EC100BFEF78BFC94ED061B53EC112B93
:108CF000FEF7DEFB53EC182BFEF781FC94ED040B22
:108D000053EC102BFEF7D4FB41EC100B53EC182B5B
:108D100051EC100BFEF773FC94ED021B53EC112B7E
:108D2000FEF7C6FB53EC182BFEF769FC94ED001B15
:108D300053EC112BFEF7BCFBBDEC028B41EC100B8E
:108D400070BD10B553EC102B51EC100BFEF7B0FBBF
:108D500041EC100B10BD10B553EC112B51EC100B66
:108D6000FEF7A6FB41EC100B10BD00000000000058
:108D70009FED050B10B553EC102B51EC100BFEF7CB
:108D8000B0FC41EC100B10BD000000000000000022
:108D90009FED050B10B553EC102B51EC100BFEF7AB
:108DA0002EFC41EC100B10BD000000000000001074
:108DB00002E008C8121F08C1002AFAD170477047A4
:108DC000002001E001C1121F002AFBD17047000002
:108DD0000121202803DA81400548014003E04028B2
:108DE00002DA2038814009B1012070470020704725
:108DF000FC06FFBD01490860704700001C2E0020E2
:108E00002DE9FF4F8DB00F460546002606E02528C8
:108E10000BD0DDE90F1290476D1C761C28780028D6
:108E2000F5D111B03046BDE8F08F0024A246A1462E
:108E30000122E94900E0044315F8013F203B02FA12
:108E400003F00842F7D128782A2810D06FF02F02BB
:108E50002878A0F13001092914D80AEB8A0102EB25
:108E6000410144F0020400EB010A6D1CF0E701CF60
:108E70005FEA000A03D544F40054CAF1000A44F042
:108E800002046D1C28782E2817D115F8010F44F024
:108E900004042A280ED06FF02F022878A0F13001A8
:108EA00009290AD809EB890102EB410100EB01090C
:108EB0006D1CF2E757F8049B6D1C28786C280FD0C6
:108EC00006DC4C2817D068280DD06A2814D104E09D
:108ED000742810D07A280FD10DE044F400140AE071
:108EE00044F4801401E044F440146978814202D1D2
:108EF00004F580146D1C6D1C28786E281ED00CDCC7
:108F0000632830D004DC00288BD0582811D19FE092
:108F1000642867D069280CD164E073282DD004DC64
:108F20006F2872D0702804D194E075286ED078280C
:108F30006DD0DDE90F129047761C4BE1C4F302506F
:108F4000022806D0032809D0042801CF09D00660E2
:108F500040E101CFF117C0E900613BE101CF06809C
:108F600038E1067036E117F8040B8DF80000002098
:108F70008DF80100EB46012003E057F804BB4FF0E9
:108F8000FF3061074FF0000102D40DE008F101014C
:108F9000884649450FDA8045F8DB1BF808100029A0
:108FA000F4D108E008F1010188468142FADB1BF8A0
:108FB00008100029F6D1DDE90F23AAEB080081464D
:108FC000214600F031F9304400EB080604E0DDE909
:108FD0000F121BF8010B9047B8F10108F7D2214698
:108FE0004846F2E00A21C4F302524FF0000B089108
:108FF000022A04D001CFC117032A09D00AE0FF1DBD
:1090000027F00707F7E8020108E02CE01EE01FE068
:1090100000B2C117042A01D140B2C117021E71F17A
:10902000000206DA0023D0EB030063EB01012D22DE
:1090300002E0220504D52B228DF82420012203E032
:10904000E20701D02022F7E7904653E00A210BE027
:10905000102109E010214FF0000B44F004044FF000
:109060000809089103E008214FF0000B0891C4F3B0
:109070000252022A04D001CF0021032A06D006E0C2
:10908000FF1D27F00707F7E8020103E080B2042A7A
:1090900000D1C0B24FF0000822072BD52A78702AE1
:1090A00007D0DDF820C08CF0100C5CEA0B0C05D06A
:1090B0000EE040228DF82420012208E050EA01034E
:1090C00006D030238DF824308DF8252002229046DA
:1090D000089B83F0080353EA0B030BD150EA01020B
:1090E00001D1620706D530228DF824204FF0010807
:1090F000A9F101092A78582A04D038A20B9208AAAB
:109100000A920BE03AA2F9E75B46089AFEF76CF97F
:109110000B9B9B5C0A9A521E0A92137050EA010242
:10912000F2D10A98ADEB000000F1200B600702D5E8
:1091300024F4803401E04FF00109D94502DDA9EBA8
:109140000B0000E0002000EB0B0141440890AAEB6B
:10915000010AE00306D4DDE90F232146504600F062
:1091600063F806444FF0000908E009A911F8090066
:10917000DDE90F12904709F10109761CC145F4DBC6
:10918000E0030CD5DDE90F232146504600F04CF8F2
:10919000064404E0DDE90F1230209047761C089960
:1091A000481E08900029F5DC08E00A980A99007822
:1091B000491C0A91DDE90F129047761CBBF10001B2
:1091C000ABF1010BF1DC21465046DDE90F2300F045
:1091D00019F806446D1C21E60928010030313233AC
:1091E00034353637383961626364656600000000E3
:1091F00030313233343536373839414243444546CD
:10920000000000002DE9F041044600251E461746E7
:10921000880404D405E039462020B0476D1C641E44
:10922000F9D52846BDE8F0812DE9F0410446002536
:109230001E469046C80301D5302700E02027880449
:1092400004D505E041463846B0476D1C641EF9D58B
:109250002846BDE8F08190F82400012801D01F20A5
:109260007047EE20704710B501220221002001F066
:1092700057F908B1072810D107220221012001F077
:109280004FF908B1072808D100210A22084601F049
:1092900047F908B1072800D1002010BD10B5ACB0C7
:1092A0000824AC216846FEF7F8F802208DF800008B
:1092B00000208DF8020006208DF803000120ADF893
:1092C0004C008DF87C00104940201491229047F208
:1092D000305023900D48299069460D4800F0F1FA6E
:1092E00008B100F0AFF80121094800F0E7FA08489A
:1092F000224690F85410012077DF002801D000F0BA
:10930000A1F82CB010BD0000D42B002051E70200C2
:1093100054360020022001F005B8000070B500248A
:10932000064D06E06868012110F8340004F032FEB2
:10933000641C28788442F5D3002070BD682D00207D
:10934000F8B516460C4605460A2A01D20720F8BD94
:1093500004F018FF18B904F0D9FE0028F7D1134F14
:10936000202113487D603C70BE60FEF796F8002017
:10937000C7E904000F4E0DE005EBC4003168009111
:1093800081788DF8011000780B4A694604F04EFE92
:109390000028DCD1641EE4B2EED2BDE8F8400548F6
:1093A0000021064A001D00F077B80000682D00205B
:1093B000D83C002048FE020071B6020015AD020044
:1093C00010B572B604F012FA04F0CEF80028FBD102
:1093D00011481249401AC408012000EB044010A1B2
:1093E00004F0DCF911480068C00700D000BE02207C
:1093F00000EB04400EA104F0D1F9BFF34F8F0B48EE
:10940000E43801680E4A01F4E06111430160BFF3E2
:109410004F8F00BFFDE70000240A0300AC090300E2
:10942000466174616C206572726F7200F0ED00E04D
:1094300053797374656D2072657365740000000064
:109440000400FA050EB500210091CDE901106A462D
:1094500044F20100FFF7B4FF0EBD10B58268C36887
:10946000934203D001F084FE002010BD052010BD02
:1094700010B58268C3689A1A83889A4203D801F0AB
:1094800081FE002010BD042010BD0000014801F045
:10949000A8BC0000A82D002010B55AB100684FF0FC
:1094A000FF3401294261C0E9024400D0002101617A
:1094B000002010BD072010BD38B5114808235822E0
:1094C000416800910F49006803F043FB002815D163
:1094D0000D4A69460D4801F089FC04000ED10121B6
:1094E0000A4801F0FEFC0123094A1946074801F029
:1094F00050FC0649012008390870204638BD00009C
:1095000050FE0200083D002055EC0200A82D00206E
:10951000FFFF7F00F8B50446002617460D468DF87C
:109520000060684600F06CF8D4E90201C04370EABC
:10953000010005D09DF8000000F086F80020F8BD7D
:1095400002F07CF840197141C4E902019DF8000065
:1095500000F07AF8A761206900B125612146BDE8D5
:10956000F840002005F078BF38B5044600208DF89B
:109570000000684600F044F8D4E90201C04370EAF4
:1095800001000DD04FF0FF30C4E902009DF800004B
:1095900000F05AF82146BDE83840012005F05CBFD4
:1095A0009DF8000000F050F8002038BD10B50146CD
:1095B0001048FFF75DFF040019D10F480F4A0178EA
:1095C000515C19B1001D05F07DF802E00C3005F08A
:1095D00013F860B9084907480839FFF73EFF30B96A
:1095E000054901220839044803F0A2FD044620463B
:1095F00010BD0000703D0020CC2D0020302D00203B
:1096000030B5EFF3108172B60D4A9468012324B18E
:109610000370002900D162B630BD93604FF0E023A3
:10962000D3F88051074C25401560C3F88041D3F82A
:10963000844154605A17C3F8842100220270E8E77D
:10964000803D0020FC06FFBD0B498A68002A11D02E
:1096500000280FD1EFF3108072B60B684FF0E022B4
:10966000C2F800314B68C2F8043100228A60002839
:1096700000D162B670470000803D002010B541EC7B
:10968000100BFFF739F851EC100B10BD70B5150039
:10969000044609D00020286034B1206820B1A079A8
:1096A000800703D0072070BD0E2070BD084600F073
:1096B0001BFBC0B2142804D02179814203D80420B6
:1096C00070BD052070BDE288216800FB0210286093
:1096D000002070BD2DE9FC4700251788064615803F
:1096E00090F82D001446894630B13A462146484646
:1096F00000F00EFB051E09D1B0784FF00C0A18B32C
:109700002088C846001DB84202D95046BDE8FC87F3
:10971000684679DF0028F9D12088032108F8001075
:1097200020881921401C80B2208008F80010208871
:10973000401C80B2208000EB0801BDF8000006F05C
:10974000C9F9218808442080F0780222C8B1218814
:1097500096F9033001F1030C4846BC45D5D8425474
:1097600021884FF0010C491C89B2218000F801C00A
:109770002188491C89B2218009F801302088401CC9
:1097800020807068B8B1218890F9003001F1030C95
:109790004846BC45B9D8425421880A22491C89B29E
:1097A000218042542188491C89B2218009F8013066
:1097B0002088401C2080308950B1CDE900474B46BD
:1097C0000622022106F1080006F0ECF9051E9DD1E3
:1097D000308A50B1CDE900474B460722032106F1FC
:1097E000100006F0DFF9051E90D1308B50B1CDE9A5
:1097F00000474B461522142106F1180006F0D2F955
:10980000051E83D1306A30B13B462246494601F0FD
:10981000A4F9051EDBD1706A30B13B4622464946A9
:1098200002F08CFE051ED2D196F82C0038B13B46D2
:1098300022464946304605F019FB051EC7D130784F
:1098400038B13B4622464946304603F02FF9051E03
:10985000BDD128465AE718B504460020ADF80000EF
:1098600013466A46204600F006F8002802D0BDF8EC
:109870000000204418BD70B5E0B1DAB1002402E068
:10988000045D2C44A4B2651C8D4206D21688A64203
:10989000F6D8061976789E42F2D18C420AD2A31CE1
:1098A000005D9BB200B1401E0004000C02D01C18E9
:1098B0008C4201D9002070BD138070BD80F830103B
:1098C00070472DE9F0410D00044606D02CB195F803
:1098D0007A000026012803D006E00E20BDE8F081C2
:1098E00095F89800012821D04FF00108A6702C228D
:1098F00005F17801201DFDF7B7FD84F83060D5F83B
:10990000A4006063D5F8A800A0634FF6FF70A4F828
:10991000240404F58260C4F82004C4F82664A4F882
:109920002A6484F82C64207810B104E00720D5E77D
:10993000FF2084F8540004F155072046C4F8107441
:10994000FFF789FCA4F8140404F2144239462846AF
:10995000FFF7C0FE0028C1D104F23120C4F818047A
:109960002046FFF778FCA4F81C0404F21C4205F121
:109970003C00D4F81814FFF7ADFE0028AED184F8EF
:109980005180208BA4F8480084F83C80266484F839
:109990005060606900216064454604F13C02781E15
:1099A00072DF00289AD1257098E710B50288102A36
:1099B0001BD0112A20D0262A1DD1007A0C4601285E
:1099C00001D0022817D1A0780521401CB0FBF1F28C
:1099D00001FB1201204600F03AF800280BD0A16BE1
:1099E000002908D0BDE810400847C27B012A02D1F7
:1099F0008088A1F8240410BD0C46002184F82E14A0
:109A00008088B4F824148842F5D120790028F2D156
:109A10000121DFE710B5044690F8540074DF0120FF
:109A200084F82E04002084F8300484F850000621C5
:109A3000204601F0A0FD002808D1A178204600F0C2
:109A400006F810B1A16B01B18847002010BD2DE9C7
:109A5000F05F044600780F4698B1A7700025C4F85F
:109A60002654A4F82A5484F82C54A079012608B16D
:109A7000012F09D0E07980B1012F05D0022F03D04A
:109A80000BE00820BDE8F09F616B21B184F82D64E4
:109A90000820884701E084F82D5404F22741002073
:109AA0000A5C0AB1304603E0401C0628F8D30020C7
:109AB0004FF002084FF0030B012F06D0022F0CD0FD
:109AC000032F0FD0042F15D110E0A17929B194F8FC
:109AD000241011B908B130460DE0E17911B108B197
:109AE000404608E0207A08B1584604E0607A08B1A0
:109AF000042000E02846A070616B41B1032801D02A
:109B0000042804D1607910B194F82E0498B184F837
:109B10002F5404F13C0018210746FDF7BEFC84F8E1
:109B20003C6004F12C0004F077FF58B194F82C004D
:109B300084F8510008E084F8305484F82F6407203A
:109B40008847E6E784F8516094F8240058B104F19E
:109B5000280004F061FF20B194F8280084F8520036
:109B600001E084F8526084F85050A27804F2264153
:109B700004F582694FF0060A052A64D2DFE802F094
:109B80007C030F22420084F83160C4F82054C4E9F9
:109B9000101584F83C808020A4F8480055E084F833
:109BA000318094F82420384612B10722027001E077
:109BB00080F800B0228A8281C4F820544160E168B4
:109BC000B96042E06069B860208BB88194F82400E5
:109BD0003D460028204602D084F83CA001E084F8ED
:109BE0003C6005F0B1FF50B185F814800421204697
:109BF00001F0C1FC38BB052184F8311021E084F864
:109C000031B01EE0E069B860208CB88194F824007F
:109C10003D460028204602D084F83CA001E084F8AC
:109C20003C6005F091FF48B185F81480042120467E
:109C300001F0A1FC38B984F831A002E0042084F8D6
:109C40003100C4F82094A07878B13A4604F1540069
:109C5000D4F8201472DF00287FF414AF94F8301089
:109C600094F8540073DF0028F6D1616B11B194F8B9
:109C700031008847002005E784F83150F5E70000FF
:109C800070B5040012D001461C221448FDF7ECFB0D
:109C90001248134D0560206850B17ADF002806D1C4
:109CA0002068016829604068686005E00E2070BD8A
:109CB0000B487BDF0028FAD108484FF6FF711438B3
:109CC000084A20F8041B0549343901600021FFF7D8
:109CD000E3FB0028EBD0032070BD0000CC3A00204D
:109CE000282D0020E1FA020010B5044600F006F825
:109CF00008B1204610BD142010BD0000142801D367
:109D0000002070470146014802F06DBFEC3A002088
:109D10007CB5054608880C460930904201D90C20D4
:109D20007CBD68466DDF0028FAD121880820685480
:109D300020881B21401C80B2208029542088401C90
:109D400080B220802844DDF801100160BDF80510C4
:109D500081802088801D80B220809DF800104908F5
:109D600000D0012129542088401C208000207CBD87
:109D7000F8B52F4D01880446B5F854603B294ED004
:109D80001BDC2C482C4A1029A0EB02004FEAD00023
:109D90004FF0030202EB004018D011292BD01329F9
:109DA00031D0212908D100200090A08869468FDF9A
:109DB000002801D0FFF746FBF8BD522929D05629CB
:109DC00031D05729F8D10120A870F8BD1BA103F0AC
:109DD000E5FC072000F0C6FB08B1FFF733FBA188C4
:109DE000A5F85410184803F05BF80028EDD0BDE842
:109DF000F840FFF727BB15A103F0D0FC4FF6FF702A
:109E0000A5F85400F8BD00231A46852130467FDFAF
:109E1000EBE700231A4619463046B1DFE5E78088B4
:109E2000132176DFE1E78088132176DFDDE700008C
:109E3000E82A0020240A0300AC090300436F6E6E79
:109E400065637465640000004836002044697363EC
:109E50006F6E6E65637465640000000010B51A4C87
:109E60000188606810290ED011292BD1401E606036
:109E700028D1FFF7F8F9002824D02168002921D043
:109E8000BDE810400847D0B900210122084600F083
:109E900047FB08B107280FD107220221012000F05B
:109EA0003FFB08B1072807D104220221002000F05F
:109EB00037FB20B1072802D0216801B188476068CC
:109EC000401C606010BD0000202D00202DE9F047EF
:109ED00001883B4E40F2F3194FF6FF7510291BD055
:109EE00011293ED0122954D0502946D1C188F28977
:109EF000841D914241D1618902293ED18688304634
:109F000001F0BEFC050038D004F10C0000F0C2F9ED
:109F1000A8B3294630464EE0C17B87880446012914
:109F20002BD1A846284601F0ABFC050017D02F80A6
:109F300000202872234843464A460168C5F80A10A3
:109F40004068C5F80E0004F1100105F10A0001F0A7
:109F500045FF6872F08900280FD129462AE00420C5
:109F600013E0808801F08CFC040006D06068FFF7E5
:109F7000FBFA08B104F072FF2580BDE8F087FFE727
:109F80006868FFF7F1FA0028F7D0BDE8F04704F061
:109F900065BF87880646384601F072FC0400ECD0A5
:109FA0002B464A4606F1080104F10A0001F016FFAB
:109FB000607221463846BDE8F04700F015BE00004B
:109FC000CC3A0020282D00202DE9F04F0446868849
:109FD0000188424897B0834610290CD0112950D0EF
:109FE000103019296AD01A2974D1217A0C09042C4D
:109FF0004DD301224CE0394D083DA868C0430B9079
:10A0000069680BA802F010FE0B990CA800F086FD01
:10A010002C220CA96846FDF727FA0027E946A84636
:10A0200010E000BF09EB47005FF00005B0F804A0A6
:10A0300008EB85005146001D02F0CAFD6D1C1E2D67
:10A04000F6D37F1C0098B842ECD8142E05D317B075
:10A050000420BDE8F04FFFF7F5B93146584602F04D
:10A06000CDFD314608F1040002F0C8FDE07B022876
:10A0700030D117B03146BDE8F04F1848001D02F04E
:10A08000BDBD17B03146BDE8F04F02F0A1BD0022C2
:10A09000314601F06BFA032C01D3012200E00022CB
:10A0A0000E4831460C3001F061FA022C01D3012236
:10A0B00000E0002209483146083006E0217A0029F4
:10A0C00008D1617AC1F3C002314617B0BDE8F04F44
:10A0D00001F04CBA17B0BDE8F08F0000F03A002054
:10A0E000F0B585B016460F4604001D4614D004AAEC
:10A0F00019466069FFF7CAFA00280BD1A5F57F4021
:10A10000FF380BD0049848B1007848B13088F42863
:10A1100008D9072005B0F0BD0E20FBE70520F9E7C0
:10A120000820F7E700200090019002900390A0889B
:10A13000ADF8000001208DF80200CDE90267694604
:10A140002846AEDFE6E7000070B5334D04008EB060
:10A150002DCD08AE86E82D005BD0E9B30868A0617C
:10A16000214608A862DF002851D1207801258DF80A
:10A170003200ADF83050A21C0CA92846A8DF0028F8
:10A1800045D120216846FDF788F90220ADF800008E
:10A1900020788DF802008DF80C509DF80D00F42603
:10A1A000ADF8046040F00C008DF81150ADF8065089
:10A1B0008DF80D008DF81250608804F10C0269468C
:10A1C00000F0B6FB002822D120216846FDF765F992
:10A1D0000320ADF8000000E01BE020788DF80200BD
:10A1E0008DF80C509DF80D008DF81150ADF80460FD
:10A1F00040F010008DF81250ADF806508DF80D00AB
:10A200008DF813506088221D694600F091FB0EB056
:10A2100070BD0E20FBE70000F8FD020030B587B0EE
:10A220000446002928D0002C26D008462188102971
:10A2300024D0502928D057291ED10546A18840692D
:10A240006A46FFF723FA002816D100980078002804
:10A2500012D0A86900280FD0182101A8FDF71DF918
:10A2600001208DF804000295A088ADF80C0000983C
:10A270000490A96901A8884707B030BD07B02146FE
:10A28000BDE8304004F0A6BA07B02146BDE8304032
:10A2900004F080BB007800F0010070470149085CC1
:10A2A00070470000B0FD0200084908B5085C009046
:10A2B000684603F0A9F8D0F810050099C84010F0DE
:10A2C000010000D0012080F0010008BDB0FD0200B7
:10A2D0002DE9FC410646C0074FF000050ED0104F97
:10A2E00000240122385D009500231146019502F0FB
:10A2F000B6FF641C042CF4D300F04EF8B0070DD563
:10A30000074E0024361D0022305D032300951146C0
:10A31000019502F0A4FF641C042CF4D3BDE8FC8179
:10A32000ACFD0200094908B5085C0090684603F0DE
:10A330006BF8D0F80425009B0121994021EA020323
:10A34000C0F808351140C0F80C1508BDACFD02007E
:10A350000249085C012103F0DFB80000ACFD0200F7
:10A360000249085C002103F0D7B80000ACFD0200F0
:10A37000084908B5085C0090684603F045F8D0F835
:10A3800004050099C84010F0010000D0012080F0C1
:10A39000010008BDACFD020010B500242046FFF707
:10A3A000D7FF641C042CF9D310BD10B5002420463F
:10A3B000FFF7D6FF641C042CF9D310BD10B502467C
:10A3C000064B4FF0FF3000215C5C944201D10846FF
:10A3D00010BD491C0429F7D310BD0000B0FD0200D8
:10A3E00070B50C4E0C004FF0000530600BD0012012
:10A3F00000F06AF808B1022004E0002000F064F8E0
:10A4000000B10B202070706810B9FEF72CFF0546D4
:10A41000284670BD202D002010B5002000F0DCF98A
:10A4200008B1062806D1012000F0D6F908B10628A7
:10A4300000D1002010BD00002DE9F0470D468146F7
:10A44000FFF7BCFF0446042836D2DFF874801B48AF
:10A450001C4EA8F10C0725B3012D0ED0022D2BD1D7
:10A4600004EB440030444578002D25D0B96800291C
:10A4700022D02846BDE8F047084704EB4401755C4C
:10A480000E44717849B10E4A4FF48041093A806810
:10A49000FFF740F808B987F80390B17808F804107E
:10A4A000E2E78068FFF760F804EB4401314418F8F4
:10A4B00004008D78A842D7D0BDE8F087B4FD020033
:10A4C000BC2C0020883A0020042801D2FFF7ECBE03
:10A4D000002070470146104810B5B0F85400042918
:10A4E00007D007290ED00A2915D1BDE8104004F085
:10A4F00041BD132176DF0CE000280CD0BDE81040F0
:10A50000FEF7A0BFA0F57F41FF3904D10348FFF754
:10A5100081FA0828F0D110BDE82A00205436002026
:10A5200070B50023042810D20D4D00EB4004012A21
:10A5300002D101290CD00022094E00EB400030442A
:10A5400061B1012906D0022906D00723184670BD43
:10A550000E30C2B22A55F9E74270F7E78270F5E78C
:10A56000883A0020044A014600201279D20702D01E
:10A57000084600F04DB87047B02C002070B5064674
:10A580001E480024C0E90161B00720D50025012242
:10A5900011462846FFF7C4FF6D1C0446042D02D265
:10A5A000002CF4D013E094B940F233320421144863
:10A5B000FEF7C6FE04000AD1FEF7B0FE040006D185
:10A5C0000F48104A0021001FFEF766FF0446F007FF
:10A5D00012D00120FFF77CFE74B909480A4A002115
:10A5E0000C38FEF759FF040006D10548074A01213F
:10A5F0000838FEF751FF0446204670BDB02C0020FD
:10A60000C0FD0200B5A8020051BE02001593020071
:10A610002DE9F05F6E4C054600266078B34618B110
:10A6200084F801B001F0FCFB6A4F4FF47A694FF4F3
:10A63000C87A4FF00108182D69D2DFE805F00C1335
:10A6400013384754696E727B727BC584848484841A
:10A65000B3B6B9BCC5C501F0E3FB3868FEF784FFAB
:10A6600006465CE00020FFF783FE00284FF0000064
:10A6700008D0FFF76DFE022D02D14FF4E16008E033
:10A68000484606E0FFF76CFE022D01D1C82000E02D
:10A690005046410CC0034FF47A72801841F100011A
:10A6A000257052000023FCF79FFE01462AE000209F
:10A6B000FFF75EFE00284FF0000004D0FFF748FED1
:10A6C0004FF44870E5E7FFF74BFEDFE70020FFF7A8
:10A6D0004FFE00284FF0000002D0FFF739FECFE711
:10A6E000FFF73EFED4E70020FFF742FE00284FF0C0
:10A6F000000002D0FFF72CFE01E0FFF731FE2570CD
:10A7000040F6CD4100223868FEF704FF064646E0D9
:10A710000020FFF707FE257008E0002051E02570BB
:10A720003DE084F801800120FFF7FCFD002240F2AB
:10A730006661E8E784F801800120FFF7F3FD00225D
:10A740004FF40051DFE77868FEF70EFF0646D5F1BB
:10A75000110000D02EB10220FFF7FAFD84F802B0FC
:10A760001DE0012816D980B2C8214843C117C9038A
:10A7700041EA5041C0034FF47A72801841F1000160
:10A7800052000023FCF730FE014600227868FEF7F5
:10A79000C1FE06460220FFF7E3FD84F80280304642
:10A7A000BDE8F09F01F03CFBB9E701F039FBB4E7ED
:10A7B00001F036FB04E001F033FB0020FFF7D0FD91
:10A7C0000120FFF7CDFDAAE7FFF7EFFDA7E70000A7
:10A7D000B02C0020B4FD0200012105F04BBA0000AE
:10A7E0002DE9F84F0546861C00208DF800009146A3
:10A7F0000F464FF0010A6846FEF702FF1B4C04F2B9
:10A800001C4860683860D4E90101194F401A396862
:10A81000081A0EE00121404602F000FA01F042FB66
:10A820000146404602F0FAF9D4E90101401A3968BC
:10A83000081A401C8642EDD8B9F1000F03D005205C
:10A8400065F3891002E0062065F39F5061683A685D
:10A85000114004EB8101C8606068304460609DF87D
:10A860000000FEF7F1FE5046BDE8F88FA03F002043
:10A87000002E0020044881684068814201D10120F7
:10A880007047002070470000A03F0020034630B50D
:10A89000074800210478426806E000BF02EBC100CF
:10A8A00005789D4203D0491CA142F7DB002030BD52
:10A8B000682D002000780221FFF7BEBD05494FF04A
:10A8C000FF32082841F8202002D3084480F858209D
:10A8D00070470000783B0020F0B54FF0FF3512B113
:10A8E0000023082601E008230C260C4C05E000BFDD
:10A8F00054F823707F1C04D05B1CB342F8D3284665
:10A90000F0BD26185DB286F8305044F82310002AB6
:10A91000F5D1E11881F85800F1E70000783B0020FC
:10A920000249084490F9300070470000783B00204D
:10A930002DE9F0438146887891B090460C4600B9E5
:10A9400001208DF83E002088ADF83C0000250095E0
:10A95000607C694604F0F6FA6E46A07C711C04F037
:10A96000F1FAE07B00289DF8020002D040F00800D8
:10A9700001E020F008008DF80200217C11B140F0C8
:10A98000100001E020F010008DF80200217B11B1D1
:10A9900040F0010001E020F001008DF80200217D6F
:10A9A00009B1022100E0012161F342008DF80200AB
:10A9B0001C2102A8FCF771FD607BC10601D4800652
:10A9C00017D50E950EAFE07C791C04F0BBFA9DF80C
:10A9D0003800079720F00F00401C20F0F0001030E6
:10A9E0008DF838009DF83A0020F00600801C8DF8A4
:10A9F0003A00607B8DF80800A07B8DF809001421D7
:10AA000009A8FCF74AFD0FA8CDE90906A088ADF812
:10AA10003000A06820B1E088ADF82C00A0680D904F
:10AA2000A06998B301950088ADF81000A06901AD48
:10AA300001A94088ADF81200A0694068069503900E
:10AA4000A069007B04F07EFAA069691C407B04F0D9
:10AA500079FAA069807A00289DF8060002D040F0BB
:10AA6000080001E020F008008DF80600A169C97A0D
:10AA700011B140F0100001E020F010008DF8060048
:10AA8000A169097A19B140F0010002E00DE020F05F
:10AA900001008DF80600A169897B09B1022100E05F
:10AAA000012161F342008DF80600E06900B10590D4
:10AAB000434609AA02A94846AADF11B0BDE8F083BF
:10AAC00070B5084C050009D010342168002907D062
:10AAD00008682060496828468847F6E70834F4E7A4
:10AAE00070BD0000643B0020054A012120B101280F
:10AAF00005D19170FFF7E4BF51700020FAE770476D
:10AB0000643B002010B5D0E90234D1E90220D11A0B
:10AB1000A04101D3012010BD002010BD73B58CB041
:10AB20000646002000900D9880B100246D46214615
:10AB30000DA802F058F830B1009805EB4000848071
:10AB40000098401C0090641C142CF0D32C22694601
:10AB50003046FCF789FC0EB070BD2DE9F041178836
:10AB60000646B81D14460D46984202D90C20BDE891
:10AB7000F0813188072206290AD34FF4486C4FF63A
:10AB8000FF73614501D9994202D17088062801D22C
:10AB90001046ECE7604501D99842F9D1994203D0BB
:10ABA000984201D08142F3D80520E855208812212F
:10ABB000401C80B2208029542088401C80B2208014
:10ABC0004119308804F086FF2188084480B2208033
:10ABD0004119708804F07EFF2188084420800020FD
:10ABE000C5E7FEF72FBC000038B54A7A0F4B62B1BB
:10ABF00000220A725969002906D001228DF800202E
:10AC0000ADF802006846884738BD0A7A62B19B6891
:10AC10004C68024619462046FEF77CFC0028F3D01B
:10AC2000BDE8384004F01AB95B68F1E7CC3A00207F
:10AC300010B500230BE000BF00EB830494ED000A85
:10AC4000BCEEC00A10EE104A21F813405B1C934280
:10AC5000F2D310BD70B588B006460020059006906E
:10AC6000ADF81410ADF816100190029001AA05A9D4
:10AC7000304690DF050021D003F002F90346114869
:10AC800011493246401AC108012000EB0140044638
:10AC90000E4902F08EFDBDF8042012B9BDF8060081
:10ACA00028B1BDF80630204609A102F082FDBDF8AA
:10ACB00008201AB12046164902F074FD08B0284653
:10ACC00070BD0000AC090300AC090300780203006A
:10ACD0005468652072657175657374656420545895
:10ACE0002F5258207061636B6574206C656E6774B9
:10ACF0006820697320746F6F206C6F6E67206279B3
:10AD00002025752F2575206F63746574732E0000E0
:10AD1000C402030070B500240F4D10E0686800EB1A
:10AD2000C406307803F0EAF97178012901D00121D5
:10AD300000E000214140307800F094F9641C28784C
:10AD40008442EBDBD5E90401084303D0BDE8704041
:10AD500004F09EBB70BD0000682D002010B50021DE
:10AD6000024801F06CFF80F3100010BDBC430020CE
:10AD70004FF480328A400168C1F848230068C0F867
:10AD8000082370474FF4A07202EB810189B200F0F2
:10AD9000D9B92DE9F04105460E464FF4A07000EBFD
:10ADA000860081B228684FF48034B440984622F07F
:10ADB0007F47C0F808432868C0F84843286802F075
:10ADC000D5FD286800EB8600C0F840752868C0F8FB
:10ADD0004443B8F1000F02D02868C0F80443BDE82E
:10ADE000F0810068D0F804057047000070B5437921
:10ADF000234C44F823204279231D03EBC202224C4A
:10AE00001579204A121BD4082DB10825022000EB29
:10AE100004401EA130E005680A88C5F8082590F9AD
:10AE200004208978002A4FEA411104DB02F1E02274
:10AE300082F8001405E002F00F0202F1E02282F82D
:10AE4000141D90F904100122002909DB01F01F05EF
:10AE500002FA05F54909890001F1E021C1F8005124
:10AE60004179002503EBC1010A71417943F83100B2
:10AE7000032000EB04400EA102F090FC284670BDB8
:10AE8000E02D0020040A0300AC09030052544320C3
:10AE9000696E7374616E636520616C72656164795B
:10AEA00020696E697469616C697A65642E000000BE
:10AEB0005254433A20696E697469616C697A6564B9
:10AEC0002E00000090F90400002809DB00F01F02AA
:10AED000012191404009800000F1E020C0F80012FB
:10AEE00070470A46022100F0B4B84FF4827100F0B6
:10AEF00029B90068012101607047006801214160A3
:10AF000070472DE9F05F07460C464FF4A07000EB48
:10AF100084001FFA80FA38684FF48036A6409B46BA
:10AF200022F07F45C0F848633868C0F80863386885
:10AF3000D0F8048500EB8402D2F84095C2F8408531
:10AF40005146386802F012FDA9EB080020F07F405E
:10AF5000012806D1102003F015F85146386802F098
:10AF600005FD3868D0F80485C0F84463A5EB0801F6
:10AF700021F07F413868012900EB840010D0C0F82F
:10AF800040553868D0F804156FF07F4C6A1A521E8D
:10AF900022F07F42ACEB0B03934217D362B118E06F
:10AFA0006D1CC0F84055102002F0ECFF3868D0F856
:10AFB000040540450AD10CE000EB84006D1CC0F88C
:10AFC00040553868D0F80405884202D00D20BDE80D
:10AFD000F09F01223146384600F03BF80020F6E7AA
:10AFE00010B52021032000F0AFFE072140F2013010
:10AFF00000F0AAFEBDE810400A2001F0E3BF30B522
:10B000000446006887B00D46806800281FD01821CC
:10B010006846FCF742FA0195A0680590207910B1C6
:10B02000012810D107E001208DF80000206902906E
:10B03000E068039005E002208DF80000E06800035E
:10B04000029060690490206881686846884707B06C
:10B0500030BD0368C3F84413002A02D00068C0F86A
:10B06000041370472DE9F84F0E463449804601EB32
:10B070005001C007097801D00F0901E001F00F0766
:10B080004FF00009424601204946FCF7DEF9DFF89F
:10B09000B0A004460D46052F4ED2DFE807F0031698
:10B0A0001B282C00002E47D00121404604F090F8C8
:10B0B0008DF800906846FEF7A3FA5046D0E90412D6
:10B0C0000C431543CAE9044532E00EB1022114E0F5
:10B0D000002112E04EB10321404604F079F84046C9
:10B0E000BDE8F84F012104F04DBD012105E0002E1F
:10B0F00022D1042101E02EB103214046BDE8F84FE2
:10B1000004F066B80021404604F062F80021404691
:10B1100004F038FD8DF800906846FEF771FA50464D
:10B12000E243D0E904341A4024EA0501CAE90421C3
:10B130009DF80000FEF788FABDE8F88FD83C0020A3
:10B14000682D002010B5006842581AB102F00EFCBC
:10B15000012010BD002010BD82B0CDE9000121F01A
:10B16000004001909DED000B02B051EC100B7047B8
:10B17000826883881A4003689A5C0A708168491C57
:10B1800081607047C26883881A4003689954C16817
:10B19000491CC160704770B5B0F900605C42002581
:10B1A0009E4202DCA64200DB0580B1F90000984215
:10B1B00002DCA04200DB0D80B2F90000984202DC04
:10B1C000A04200DB158070BD10B5DF4C2DED108B5B
:10B1D000F0EE409AB6EE000AB0EE42EAF0EE61EA16
:10B1E000B0EE41AAB0EE609AB0EE62DAF0EE00CABC
:10B1F000D4ED021A94ED031AD4ED040A94ED052A55
:10B2000061EE80BA21EE00BA60EE80AA62EE00DA4A
:10B210002EEEAE0A21EEACCA21EE2C8A60EEAC8A8C
:10B220000EEE0E0A0DEE0D0A10EE100AFCF7D9FA1A
:10B2300041EC100BFDF7CCFC51EC100BFCF7E4FAE1
:10B2400000EE100AD4ED051A94ED042ACEEE802A01
:10B25000CEEE000A8DEE001A28EE210A0CEE420A0C
:10B2600030EE620AD4ED032A2CEE223A08EEA13A1F
:10B2700061EEAC1A21EE80EA73EE600AB7EE003A96
:10B2800008EE623A68EE2C2A21EEA0DA0CEE20EAF3
:10B2900008EEC23A28EEAC2A68EE20CA28EE008AF0
:10B2A00033EE411A48EEC0CA08EEA08A02EE41DA37
:10B2B00002EEC1EA0CEE40DA2CEEAC0A0EEE0E0AFB
:10B2C0000DEE0D0A08EE080A10EE100AFCF789FAD6
:10B2D00041EC100BFDF77CFC51EC100BFCF794FAE1
:10B2E00000EE100A6BEEA98A2BEE89FACCEE800AEA
:10B2F0004AEE8A8A0BEE4AFA4DEEC98A0DEEA9FA99
:10B30000CEEE00CA10EE900A8DEE00CA2BEE69DA7E
:10B310000AEEC9DA0DEECADAC8EE00FA2BEE8A8A16
:10B320000BEE098A0AEEE98AFCF75BFA41EC1B0B8B
:10B330009FED86EBB0EE4E0AF0EE6E0AFDF748FC8C
:10B340009FED849B51EC100B53EC192BFCF757F934
:10B350009FED82AB53EC1A2BFCF751F953EC1B2BEE
:10B36000FCF74DF941EC1B0B1DEE100AFCF739FA06
:10B3700053EC1B2BFCF73DF99FED7ABB53EC1B2BD9
:10B38000FCF73DF941EC1D0BA068FCF72AFA53ECE1
:10B390001D2BFCF78DF8FCF737FAA0601CEE900A25
:10B3A000FCF71FFA41EC1D0BB0EE4E0AF0EE6E0AF0
:10B3B000FDF70EFC53EC192B51EC100BFCF71FF9A9
:10B3C00053EC1A2BFCF71BF953EC1D2BFCF717F968
:10B3D00041EC1D0B18EE900AFCF703FA53EC1D2B01
:10B3E000FCF707F953EC1B2BFCF709F941EC1D0B9B
:10B3F000E068FCF7F6F953EC1D2BFCF759F8FCF765
:10B4000003FAE0601CEE100AFCF7EBF941EC1C0BB0
:10B41000B0EE4E0AF0EE6E0AFDF7DAFB53EC192B94
:10B4200051EC100BFCF7EBF853EC1A2BFCF7E7F898
:10B4300053EC1C2BFCF7E3F841EC1C0B1FEE100A3D
:10B44000FCF7CFF953EC1C2BFCF7D3F853EC1B2B78
:10B45000FCF7D5F841EC1C0B2069FCF7C2F953EC62
:10B460001C2BFCF725F8FCF7CFF920611FEE900AA2
:10B47000FCF7B7F941EC1C0BB0EE4E0AF0EE6E0A89
:10B48000FDF7A6FB53EC192B51EC100BFCF7B7F8AA
:10B4900053EC1A2BFCF7B3F853EC1C2BFCF7AFF86A
:10B4A00041EC190B18EE100AFCF79BF953EC192B21
:10B4B000FCF79FF853EC1B2BFCF7A1F841EC180BA1
:10B4C0006069FCF78EF953EC182BFBF7F1FFFCF7E2
:10B4D0009BF900EE900AC4ED050A94ED020A94ED82
:10B4E000031A20EE000A01EE010A94ED041A01EE9F
:10B4F000010A00EEA00A10EE100AFCF772F941EC06
:10B50000100BFDF765FB51EC100BFCF77DF900EE1D
:10B51000100AD4ED020A80EE801A84ED021AD4EDEE
:10B52000030A80EE801A84ED031AD4ED040A80EE3B
:10B53000801A84ED041AD4ED050A80EE801A84ED99
:10B54000051ABDEC108B10BD682B00200000000018
:10B550000000E83F00000060FB21094000000020DF
:10B56000C7719C3F000000403333C33F0AB101F074
:10B5700045BB01F02DBB70B50D460446B0F8141460
:10B58000D0F810040122FEF766F900B1057004F14D
:10B590003C0204F5826104F1540072DF70BD10B505
:10B5A0000446C0B2FEF702F8204610BD0D484A8896
:10B5B000B0F854309A4214D10A88A2F52063773B40
:10B5C0000FD18988C91E8AB2A0F8562006480749BB
:10B5D0001346401AC008032101EB004004A102F009
:10B5E000E8B87047E82A0020240A0300AC090300E9
:10B5F00044617461206C656E2069732073657420EA
:10B60000746F2030782558282564290010B5094921
:10B61000094801F08BFB08B1FDF714FFF72106483C
:10B6200001F078FB002803D0BDE81040FDF70ABF09
:10B6300010BD0000ADB502003436002010B50B4837
:10B64000FFF7CFFB094A083AD2E90434C018D2E91F
:10B65000063244F10001C31A71EB020204D24FF02A
:10B660008072801841F1000110BD0000A82D00205B
:10B6700010B5C0B2FFF70AF90446007802F03EFDAB
:10B6800001466078012801D0012000E0002090EA06
:10B69000010F08D00449D1E90401084303D1BDE8F2
:10B6A000104003F0F5BE10BD682D00201848194960
:10B6B00070B5401AC108032000EB01400025044684
:10B6C00015A102F06BF81D4800F0E4F806002046D2
:10B6D00004D01BA102F062F8304670BD1FA102F039
:10B6E0005DF800BF00F054F9EA280BD028466D1C25
:10B6F000EDB20A28F6D3204622A102F04FF84FF00F
:10B70000FF3070BD204628A102F048F8002070BD2F
:10B71000240A0300AC09030063616C6C696E672046
:10B72000696E765F636865636B5F616E645F7365A6
:10B730007475705F6368697028290000A42C00206C
:10B74000494D55206661696C656420746F20696E8F
:10B75000697469616C697A650000000063616C6CF2
:10B76000696E6720696E765F69636D32303934388F
:10B770005F6765745F6465766963655F69642829DE
:10B7800000000000494D55206661696C65642074B5
:10B790006F20726573706F6E64206F6E2049324344
:10B7A0002062757300000000494D552069732072B6
:10B7B0006573706F6E64696E67206F6E20493243E7
:10B7C0002062757300000000F8B5FFF709FC002443
:10B7D00003F02AFA002000F096FA012140F2092035
:10B7E00000F0B2FA0A2001F0E2FBFFF7F9FB0A20B1
:10B7F00001F0DDFB40F203358C21284600F0A4FA6D
:10B800006E1C0021304600F09FFAAF1C82213846A2
:10B8100000F09AFA0A2001F0CAFB002000900222F0
:10B8200069463B2000F003FABDF80000134940BA16
:10B8300040F64812A1F8580044F60901884203D0A6
:10B84000904201D00020F8BD884201D1904204D03E
:10B850002346641CE4B20A2BF0D38C21284600F066
:10B8600073FA1121304600F06FFA8821384600F053
:10B870006BFA082003F03EFB0120F8BDE82A002007
:10B880000146034802888A4200D000207047000029
:10B89000B83A002070B5044603F078FE204600F068
:10B8A00023F94FF0FF3548B9642001F080FBFFF722
:10B8B0008BFF0121204600F003FA08B1284670BD35
:10B8C000082003F017FB002070BD000070B504468F
:10B8D0004FF40575284600F09FF900F0F90004F0D8
:10B8E000030440EA4401284600F02EFA07480949BB
:10B8F00050F824200648BDE87040401AC0080321D3
:10B9000001EB004004A101F04DBF00007C2C0020A1
:10B91000240A0300AC090300416363656C65726F20
:10B920006D65746572204653523A202573000000FD
:10B9300070B5044640F20125284600F06DF900F08C
:10B94000F90004F0030440EA4401284600F0FCF941
:10B950000748094950F824200648BDE87040401ABD
:10B96000C008032101EB004004A101F01BBF00004F
:10B970008C2C0020240A0300AC0903004779726F65
:10B9800073636F7065204653523A202573000000A0
:10B99000002000F041B9000070B50B4C06460D4682
:10B9A000207820B13246094909A0FCF7CBFC31468A
:10B9B000682003F06EFE28700146207810B10AA0BE
:10B9C000FCF7C0FC002070BDAC2C002036FD02004E
:10B9D000457865637574696E67202573283078250E
:10B9E000303278290D0A00003078253032780D0A7F
:10B9F000000000002DE9F041164C07460E46207865
:10BA0000154628B113463A46134914A0FCF79AFC90
:10BA1000EBB232463946682003F044FE207898B1F4
:10BA20000024154F0BE000BF04EA070003280ED0E6
:10BA300012A3325D214612A0FCF784FC641CAC42C8
:10BA4000F2D314A0FCF77EFC0020BDE8F08111A326
:10BA5000EFE70000AC2C002050FD02004578656344
:10BA60007574696E67202573283078253032782CFC
:10BA700020256C64290D0A00030000802C200000A2
:10BA80002076616C5B25645D3A307825303278250C
:10BA9000730000000D0A000070B50C460849054609
:10BAA000097829B102462346064907A0FCF74AFC5B
:10BAB00022462946682003F087FF002070BD000061
:10BAC000AC2C002070FD0200457865637574696ECA
:10BAD00067202573283078253032782C203078255F
:10BAE000303278290D0A000070B504460025802107
:10BAF000062000F029F94FF47A760A2000F01CF9AC
:10BB0000062000F089F8000604D528466D1CADB269
:10BB1000B042F2D3204800F00FF9FFF739FFEA28CE
:10BB200002D04FF0FF3070BD002000F0ECF810F0B4
:10BB3000FF00F8D1012140F2092000F005F90A20A8
:10BB400001F035FA2068C07900F0A4F82068807907
:10BB500000F07AF82068808800F0C8F810F0FF0044
:10BB6000E1D1062000F058F800F0F80040F00101A3
:10BB7000062000F0E9F820680078C0F38100FFF7A4
:10BB8000D7FE2068007800F00300FFF79FFE012039
:10BB900000F0B9F8002070BDA08601007CB5144605
:10BBA0000D460646062269462D2000F040F89DF815
:10BBB00001009DF8001000EB012030809DF803008B
:10BBC0009DF8021000EB012028809DF805009DF8EB
:10BBD000041000EB012020807CBD7CB514460D468E
:10BBE000064606226946332000F021F89DF8010040
:10BBF0009DF8001000EB012030809DF803009DF8B7
:10BC0000021000EB012028809DF805009DF804102B
:10BC100000EB012020807CBD38B5044600F02AF8F6
:10BC2000E0B26946FFF7B8FE9DF8000038BD70B578
:10BC300015460E46044600F01DF8E0B22A4631468D
:10BC4000BDE87040FFF7D6BE70B504464FF40575E9
:10BC50002846FFF7E1FF00F0C601082C05D041F0AF
:10BC6000010004F0070140EAC101284600F06CF829
:10BC7000002070BD70B5064DF02101EA1014A878BF
:10BC8000844204D021467F20FFF706FFAC7070BDD0
:10BC90006C2C002070B5044640F201252846FFF7C1
:10BCA000BBFF00F0C601082C05D041F0010004F0F4
:10BCB000070140EAC101284600F046F8002070BDA7
:10BCC00070B5054600680C460088C0F38020A0428D
:10BCD0000AD084F0010000F016F8002805D1286889
:10BCE000016864F38A210160002070BD40F24C417C
:10BCF000B1FBF0F0401E10B5C1B24FF4007000F07F
:10BD000023F8002010BD10B504460620FFF784FF7D
:10BD10006CB140F040042146062000F015F80620E2
:10BD2000FFF77AFF844205D04FF0FF3010BD20F0BE
:10BD30004004F0E7002010BD002802D00149800136
:10BD40000847704731FD020070B50D460446FFF705
:10BD500091FFE0B22946BDE87040FFF79DBE024664
:10BD600000201268530713D502F00300012802D007
:10BD700002280CD105E0C2F383100B68801C184424
:10BD800004E00223086803EB92521044086001208B
:10BD90007047F8B50E4604464FF48C7102F04FF828
:10BDA00000281AD00025C4F81851D4F818010090C2
:10BDB000F07F3446FF2806D0A17F11B101F002FBCD
:10BDC00001E001F084FB65772572D4E9002101B020
:10BDD00004F10800BDE8F0401047F8BDF0B58488D4
:10BDE000A518944200D82246A41AC288D6189A42AE
:10BDF00000D81346D21A4B880788BB420CD3408820
:10BE0000834209D88888A04206D3A84204D8C888AB
:10BE1000904201D3B04201D90020F0BD0120F0BD15
:10BE20000A4810B5807860B1002401E0022C06D0E9
:10BE30002046FEF78DFA641C042CF7D310BD0324B2
:10BE4000F6E7BDE81040FEF7A7BA0000B02C0020CE
:10BE500003480179C90702D00078FEF7D9BB7047C3
:10BE6000B02C002007480122026000219007C0F892
:10BE700004118260D0F80421002AFBD0C0F804111C
:10BE80007047000018050040F7210180172141800C
:10BE9000002101714171FB2181711B21C17170472A
:10BEA000704700002DE9FF410026244800F0B3FE52
:10BEB0002248001F074600F0AEFE214C2149A06831
:10BEC00000900D6800E000986946284004EB80006F
:10BED0000C30FFF744FF0028F5D101AA009901EAD0
:10BEE000050304EB8303491CDB6842F82030401C47
:10BEF00000910228F2D3019800F0030001280BD032
:10BF0000022810D10198032101EB90500099BDF84F
:10BF10000A6001EB900005E00198BDF80A60C0F3EB
:10BF2000831008440090384600F072FE08B1009873
:10BF3000A06004B03046BDE8F0810000B8430020A6
:10BF4000A03F0020002E002092B04FF4804100203E
:10BF500001F038FC08B1FDF775FA01F003FBFDF7BD
:10BF6000ABFA08B1FDF76EFAFD490320FEF706FBB8
:10BF700008B1FDF767FA69460020FEF731FA08B10B
:10BF8000FDF760FA01F0ACFC08B1FDF75BFA01F0D7
:10BF900087FE08B1FDF756FA002569460120009595
:10BFA00001F0F4FC08B1FDF74DFA684601F086FD9A
:10BFB00008B1FDF747FA9DF80800EAA120F00F004C
:10BFC000401C20F0F00010308DF80800092202A873
:10BFD0007CDF08B1FDF736FA00951020ADF80000BF
:10BFE0003C200195ADF80200ADF804504FF4C87044
:10BFF000ADF8060068467ADF08B1FDF723FAFFF7CF
:10C0000005FBDB48019001A9DA4800F054FF08B1B4
:10C01000FDF718FAD84800906946D848FEF794F81A
:10C0200008B1FDF70FFAFDF739F91C210AA8FBF753
:10C0300034FA4FF4A030CDE90A504FF4F0200C90C0
:10C04000CF480F900324CF488DF834401090ADF8BE
:10C0500036508DF838500AA8FDF712FE08B1FDF7EA
:10C06000F1F91A2001F060F91E2001F05DF91D20A0
:10C0700001F05AF9C4480023D0E90612406ACDE91C
:10C08000061209901A208DF818001E208DF81A004B
:10C090001D208DF81900FF208DF81B004FF0006067
:10C0A0000890B9488DF824408DF82550B74A06A964
:10C0B000083000F0D1FF08B1FDF7C4F901220023D8
:10C0C00011461A20CDE9004501F0B0F8FFF7EEFA6D
:10C0D0000A2000F06CFF252001F026F92D2001F048
:10C0E00023F92A2001F020F9182001F01DF9192068
:10C0F00001F01AF9222001F017F9242001F014F9B7
:10C10000262001F011F9A248A249401AC0080A905D
:10C1100004EB00400746A0A101F040FB9548032135
:10C120000C30FDF794FC08B1FDF78CF9A54C2E20DE
:10C130002571A4F85C50A4F85A5001F0F5F8642079
:10C1400000F035FF00F06CFA00F040FCDFF878A258
:10C150004FF01F09AAF11F0B04F1800614F8010F1C
:10C16000401C04F8130B00F061FC964A3A32911E11
:10C17000881EFFF713FD934A4232911E881EFFF777
:10C180002CFD904AB4F93E304232911E881EFFF7D2
:10C1900002F8FBF7A5FD06F1240090EC030A0C3829
:10C1A000D0EC031AFFF710F8FBF7D6FE00F0C0FA48
:10C1B000844AB4F912000932511E02F0CDFF814ABF
:10C1C000B4F914000B32511E02F0C6FF7D4AB4F9D7
:10C1D00016000D32511E02F0BFFF7A4AB4F92A0050
:10C1E0000F32511E02F0B8FF764AB4F92C0011321A
:10C1F000511E02F0B1FF734AB4F92E001332511EE2
:10C2000002F0AAFF6F4AB4F930001532511E02F055
:10C21000A3FF6C4AB4F932001732511E02F09CFFA2
:10C22000684AB4F934001932511E02F095FF654A8C
:10C23000B4F936001B32511E02F08EFF614AB4F988
:10C2400038001D32511E02F087FF5E4AB4F93A00F1
:10C250001F32511E02F080FF5B4B01AA3E3BA3F14F
:10C260001F00A0F11F01009182E80908CDE904A98F
:10C27000A0F1F802A0F59B715D3BA0F5BA7000F04B
:10C280007DFB51491F221F31A1F59B70FEF7D0FCA9
:10C2900038482B214C38FBF700F914F8100C143CEB
:10C2A00030B1042859D0052858D0032857D0F7E0DA
:10C2B000384646A101F072FA2E480A214C38017026
:10C2C000217A4170617A8170A17AC170E17A01713D
:10C2D000217B4171617B8171A17BC171E17B017225
:10C2E000217C4172617C8172A17CC172E17C01730D
:10C2F000217D4173617D8173A17DC173E17D0174F5
:10C30000217E4174617E81741C4954390A88130A64
:10C31000C374027501F1080213884FEA132C80F8E8
:10C3200015C0837501F11003B3F800C04FEA1C2853
:10C3300080F8178080F818C0B1F802C04FEA1C28B6
:10C3400080F8198080F81AC0B2F802C04FEA1C28A1
:10C3500080F81B8080F81CC03CE06FE075E07EE058
:10C36000D5A40200777269737462616E6400000084
:10C370004DD9020048360020E1E60200442C00209E
:10C38000B5E70200E3AB0200C0FC020059F0020076
:10C39000240A0300AC0903004465627567206C6FD2
:10C3A0006767696E6720666F722055415254206F2F
:10C3B0007665722052545420737461727465642ED1
:10C3C00000000000E82A0020FB2F002030783041D8
:10C3D00000000000B3F802C04FEA1C2880F81D805E
:10C3E00080F81EC0B1F804C04FEA1C2880F81F80F6
:10C3F00080F820C0B2F804C04FEA1C2880F82180E1
:10C4000080F822C0B3F804C04FEA1C2880F82380CB
:10C4100080F824C0C9884FEA112C80F825C080F824
:10C420002610D1880A0A80F8272080F82810D98899
:10C430000A0A80F8292080F82A1031E0FBF75EFB19
:10C44000FBF79AFB4FF4FA6027E006F13C0090EC12
:10C45000030A0C38D0EC031AFEF7B6FE1BE0FFF718
:10C4600001FD102000F060FF28484FF48032026088
:10C470002649012008310860091F08602449086026
:10C48000C1F80001C1F804034FF0E020C0F800211A
:10C49000102000F08DFF4FF47A7000F088FD2571B8
:10C4A000B4F85430A3F57F40FF3823D0A07808B308
:10C4B0002B20ADF800006A4616491748FDF710FE1C
:10C4C0005FEA00081AD0B8F1130F17D0B8F1110FB6
:10C4D00010D0B8F1080F0DD0B8F1050F0AD00A98A6
:10C4E000012101EB004042460CA101F05BF94046FE
:10C4F000FCF7A8FF01F038F810B103E0A570F9E7E8
:10C5000001F002FA0A2000F052FD27E6040501407E
:10C5100000000140FC350020442C0020626C655F67
:10C520006E75735F646174615F73656E64206572BC
:10C53000726F723A203078255800000070B51446AA
:10C5400082880E4605462088111D0144921C99429E
:10C5500001D8FE2A01D90C2070BD521C325420880B
:10C56000FF21401C80B2208031542088401C80B2C2
:10C5700020808119288803F0ADFA2188084480B210
:10C580002080AA8842B1A96841B13044FAF76CFF13
:10C590002088A98808442080002070BD072070BD35
:10C5A0002DE9F047C5881E1DB6FBF5F78946B6FB99
:10C5B000F5F1044605FB176C407916686843DDF811
:10C5C00020A0F718001F874200D9C61A166001E0A4
:10C5D0002468491E0029FBD1A5EB0C078846B74209
:10C5E00016D818E004EB0C00001D09EB0803BAF1A3
:10C5F000000F3A4602D00146184600E01946FAF705
:10C6000033FF2468F61B4FF0000CB844B54201D943
:10C61000374600E02F46002EE4D1BDE8F087000049
:10C62000F8B5414D002405F59E76EC67E86F305C67
:10C6300002F032FE6C713C490023022232313B4849
:10C64000009400F041FD08B1FCF7FCFE6879002879
:10C65000FCD0FBF727FB0A2000F0A9FCE86F305C58
:10C6600002F01AFE6C71304900230522F0312F4888
:10C67000009400F029FD08B1FCF7E4FE6879002879
:10C68000FCD0FBF70FFB0A2000F091FCE86F305C58
:10C6900002F002FE6C71244900230522F531234883
:10C6A000009400F011FD08B1FCF7CCFE6879002879
:10C6B000FCD0FBF7F7FA0A2000F079FCE86F305C59
:10C6C00002F0EAFD6C71184900230522FA3117487F
:10C6D000009400F0F9FC08B1FCF7B4FE687900287A
:10C6E000FCD0FBF7DFFA0A2000F061FCE86F305C59
:10C6F00002F0D2FD6C710C490023022234310B4848
:10C70000009400F0E1FC08B1FCF79CFE6879002879
:10C71000FCD0FBF7C7FA142000F049FCE86F401C7E
:10C72000E8671E2882DDF8BDE82A0020C8FC020068
:10C730002DE9F05F7B4D7A4C00202DED068B04F542
:10C740009E7705F10A0A05F1480B05F186089FED71
:10C75000768A9FED769B9FED77AB05F1C409E06784
:10C76000E06F385C02F098FD00F0EAF8FBF79AFA07
:10C77000A888E66F40BA2AF81600E88840BA2BF875
:10C780001600288940BA28F81600688840BA00EEDA
:10C79000100AB8EE400A84ED1E0A30EE480A10EE88
:10C7A000100AFBF71EF853EC192BFAF79AFF53EC1B
:10C7B0001A2BFAF77DFEFBF727F849F826000A2125
:10C7C0005848FAF76AFE761CE6670E2EC8DDF87B3D
:10C7D00002F062FD00F0B4F8FBF764FAA888464660
:10C7E00041BAAAF82010E88840BAABF8200028899E
:10C7F00040BAA8F82000688840BA00EE100AB8EEE7
:10C80000400A84ED1E0A30EE480A10EE100AFAF7CC
:10C81000E8FF53EC192BFAF764FF53EC1A2BFAF7E5
:10C8200047FEFAF7F1FFC9F840000A213D48FAF740
:10C8300034FE4248007C02F02FFD00F081F8FBF747
:10C8400031FA3849A8880A3140BAC883E8883E31AD
:10C8500040BAC883288940BAF083688840BA00EE9D
:10C86000100AB8EE400A84ED1E0A30EE480A10EEB7
:10C87000100AFAF7B6FF53EC192BFAF732FF53EC14
:10C880001A2BFAF715FEFAF7BFFFC9F83C000A2188
:10C890002448FAF702FE1120A8464F46E0672748D1
:10C8A000E16F405C02F0F8FC00F04AF8FBF7FAF99F
:10C8B000B8F80410E56F49BA2AF81510B8F8061050
:10C8C0004ABA2BF81520B8F8081049BA26F81510FE
:10C8D000B8F8020040BA00EE100AB8EE400A84ED43
:10C8E0001E0A30EE480A10EE100AFAF77AFF53ECEF
:10C8F000192BFAF7F6FE53EC1A2BFAF7D9FDFAF7D3
:10C9000083FF47F825000A210648FAF7C6FD6D1C8B
:10C91000E5671E2DC3DDBDEC068BBDE8F09F000072
:10C92000E82A0020202E002000A434479A999999E3
:10C93000999946400000000000003940242C002056
:10C9400038B5094C002060710A2002460090074B60
:10C9500004F59071064800F0B7FB08B1FCF772FDD2
:10C9600060790028FCD038BDE82A0020202E002065
:10C97000C8FC02000870000A107070472DE9F04FE3
:10C980001546DDE90D97DDE90BBA0E468046002419
:10C9900017E009981919021938F81400FFF7EAFF8F
:10C9A0000A980BEB0402011936F81400FFF7E2FFB6
:10C9B00009EB04020AEB040135F81400FFF7DAFF73
:10C9C000641CBC42E5D3BDE8F08F000070B50025C3
:10C9D000154E25E01448F022AC30802110F8254097
:10C9E000E0B202F0F1FF104AE0B20323223A6021E4
:10C9F00002F0F0FF0C4AE0B203231F3A602102F07C
:10CA0000E9FF094AE0B203231C3A602102F0E2FF89
:10CA1000054AE0B20323193A602102F0DBFF6D1CE6
:10CA200030688542D6DB70BD682B002070B50024CD
:10CA30001C4E33E01B480022AC303F2110F824503C
:10CA4000E8B202F0C1FFE8B23F2102F022FE154930
:10CA500000228039C871E8B24F2102F0B5FFE8B278
:10CA60000923114A4F2102F01DFE0F480D4A30F8EC
:10CA7000011F803249BA22F814104188083249BA9D
:10CA800022F814108188083249BA22F81410C0889C
:10CA900002F1080140BA21F81400641C3068844295
:10CAA000C8DB70BD682B002027360020F8B50F4684
:10CAB000017814460546012901D1687830B12088F3
:10CAC000821C9A4232D8012902D006E00720F8BD24
:10CAD00069780144891C994228D8181A801E86B2A8
