:020000040002F8
:10700000585C0020C5730200CD730200CF730200EC
:10701000D1730200D3730200D57302000000000098
:10702000000000000000000000000000D773020014
:10703000D973020000000000DB730200DD73020060
:10704000F1750200DF7302006978020059760200D0
:1070500069760200DF7302004D750200DF730200E3
:10706000DF730200DF730200DF730200DF730200D0
:10707000DF730200DF730200DF730200DF730200C0
:10708000DF73020049760200DF730200DF73020043
:10709000DF730200DF73020089760200DF730200F3
:1070A000DF730200DF730200DF730200DF73020090
:1070B000DF730200DF730200000000000000000028
:1070C000DF730200DF730200DF73020079760200D3
:1070D000DF730200DF730200DF730200DF73020060
:1070E000DF730200DF730200DF73020000000000A4
:1070F00000000000DF73020000000000DF730200E8
:10710000000000000000000000000000000000007F
:10711000000000000000000000000000000000006F
:10712000000000000000000000000000000000005F
:10713000000000000000000000000000000000004F
:10714000000000000000000000000000000000003F
:10715000000000000000000000000000000000002F
:10716000000000000000000000000000000000001F
:10717000000000000000000000000000000000000F
:1071800000000000000000000000000000000000FF
:1071900000000000000000000000000000000000EF
:1071A00000000000000000000000000000000000DF
:1071B00000000000000000000000000000000000CF
:1071C00000000000000000000000000000000000BF
:1071D00000000000000000000000000000000000AF
:1071E000000000000000000000000000000000009F
:1071F000000000000000000000000000000000008F
:10720000DFF810D000F064F900480047B9A202008E
:10721000AFF30080585C002030B450E8012F93B2E7
:10722000C48923448489A34228BF1B1B0489A34229
:1072300002BFBFF32F8F002007E0C3EA020340E83C
:107240000134002CE9D14FF001000A6030BC7047D6
:1072500050E8012FC2EA024240E801210029F7D19B
:10726000704730B450E8022F1FFAA2F3C488A3423B
:1072700002BFBFF32F8F00200DE0C489234484890F
:10728000A34228BF1B1BC2EA034340E80234002C80
:10729000E8D14FF001000A6030BC704750E8022F7F
:1072A000C2EA224240E802210029F7D17047034692
:1072B00053E8022FD988B2EB324F4FF0000017BFCE
:1072C00092B241EA014142EA014104E05A68B2EB5C
:1072D000324F08BF012043E80212002AE8D170476C
:1072E00030B4044654E8000F0D4644E80053002B28
:1072F000F8D1156030BC704730B4044654E8000F34
:1073000040EA010544E80053002BF7D1156030BC7A
:10731000704730B4044654E8000F00EA010544E821
:107320000053002BF7D1156030BC704730B40446D1
:1073300054E8000F80EA010544E80053002BF7D120
:10734000156030BC704730B4044654E8000F00EBC1
:10735000010544E80053002BF7D1156030BC70479D
:1073600030B4044654E8000FA0EB010544E8005394
:10737000002BF7D1156030BC704770B404464FF055
:10738000000054E8006F0D68AE4207BF44E80023D8
:10739000012044E800630E60002B1CBF0020F0E7D2
:1073A00070BC704730B4044654E8000F88422CBFCC
:1073B000451A054644E80053002BF5D1156030BC52
:1073C000704700000648804706480047FEE7FEE792
:1073D000FEE7FEE7FEE7FEE7FEE7FEE7FEE7FEE785
:1073E0008D760200017202002DE9F05F0546002053
:1073F00092469B4688460646814640241BE0284626
:1074000041464746224600F053F853465A46C01AB2
:10741000914110D311461846224600F016F82D1A55
:1074200067EB01084F4622460120002100F00DF8CD
:1074300017EB00094E41201EA4F10104DFDC484691
:1074400031462A464346BDE8F09F202A04DB203A15
:1074500000FA02F1002070479140C2F1200320FAA7
:1074600003F319439040704740EA01039B0703D0A0
:1074700009E008C9121F08C0042AFAD203E011F873
:10748000013B00F8013B521EF9D27047D2B201E035
:1074900000F8012B491EFBD270470022F6E710B519
:1074A00013460A4604461946FFF7F0FF204610BD72
:1074B000202A04DB203A21FA02F00021704721FA49
:1074C00002F3D040C2F120029140084319467047B0
:1074D000064C074D06E0E06840F0010394E8070021
:1074E00098471034AC42F6D3FFF78EFE90E10200CD
:1074F000B0E1020070B58C1810F8015B15F00703BD
:1075000001D110F8013B2A1106D110F8012B03E03C
:1075100010F8016B01F8016B5B1EF9D12B0705D444
:107520000023521E0DD401F8013BFAE710F8013B8D
:10753000CB1A921C03E013F8015B01F8015B521EA9
:10754000F9D5A142D8D3002070BD00002DE9FC413F
:107550000025DFF8948000954FF4807601242F46B3
:107560000195304603F024FE38B1D8F804032042D8
:1075700003D0304603F012FE2543361D64007F1C05
:10758000B6B2082FEDD34FF4BE74204603F010FEC0
:1075900048B1204603F002FE45F000456A4602214C
:1075A000002003F03DFD15F0FF0F16D0012600244A
:1075B0002E420ED008EB8401D1F81005D1F8101539
:1075C000C0F30520094AC1F3014152F8242002B159
:1075D00090477600641C082CEAD3002D02DA684636
:1075E00004F0C6FFBDE8FC8100600040303400209C
:1075F00070B54FF48076304603F098FA114CB5051B
:1076000060B1304603F099FA0120C5F808036079AB
:1076100020B9012060712168002088474FF48276EC
:10762000304603F083FA00280AD0304603F085FA8A
:107630000220C5F808032168BDE870400120084712
:1076400070BD00002C2C002002490248091F096867
:1076500000680847CC2C00200149024805F0D8BB3F
:10766000343500200030004002494FF0402002F045
:10767000A9BC0000EC3400200149024802F0A2BC81
:10768000103500200030024004F07AB930B54FF0D8
:1076900080520023D2E94C10082906D1CC06C4F848
:1076A0000C31C4F81031624C2360082955D1614B6C
:1076B0001B68614C23605F4B1B1D1B68241D2360EE
:1076C0005C4B08331B68241D23605A4B0C331B682A
:1076D000241D2360574B10331B68241D2360554B1A
:1076E00014331B68241D2360524B18331B68524C03
:1076F000203423604F4B1C331B68241D23604D4BEB
:1077000020331B68241D23604A4B24331B68241D2F
:107710002360484B28331B68241D2360454B2C33C2
:107720001B68241D2360434B30331B68424C40349C
:107730002360404B34331B68241D23603D4B38339A
:107740001B68241D23603B4B3C331B68241D2360B6
:10775000384B40331B68241D2360082904D10300E3
:1077600002D1374C354B2360082904D1030002D1E4
:10777000344CFB232360082908D1030006D1324B87
:1077800092F858521C6865F303041C60082904D160
:10779000030002D12D4C8B012360082906D12C480F
:1077A0000168C90702D06FF0010101602948016832
:1077B00041F470010160BFF34F8FBFF36F8FD2E9C7
:1077C0004C104FF01022082906D1032804D9D2F812
:1077D0000802174920310860D2F80002002803DBB4
:1077E000D2F8040200281FDA012004F021FD122142
:1077F000C2F8001218480368002BFCD0C2F804122B
:1078000001680029FCD0002004F012FDBFF34F8F67
:1078100010487C380168114A01F4E06111430160AD
:10782000BFF34F8F00BFFDE70E490D48086030BD24
:10783000380500400404001020C5004048810300C2
:107840008C56004018F50040E40E0040409602407F
:107850000004004088ED00E000E401400400FA0567
:107860000090D003002D0020014800680047000070
:10787000342C00200FB4054B10B503A9044A02981C
:1078800000F02AF810BC5DF814FB0000519C0200C7
:10789000DC2C002002E008C8121F08C1002AFAD11F
:1078A00070477047002001E001C1121F002AFBD180
:1078B000704700000121202803DA8140054801407B
:1078C00003E0402802DA2038814009B101207047E6
:1078D00000207047FC06FFBD2DE9FF4F8DB00F461D
:1078E0000546002606E025280BD0DDE90F1290475B
:1078F0006D1C761C28780028F5D111B03046BDE803
:10790000F08F0024A246A1460122E94900E0044389
:1079100015F8013F203B02FA03F00842F7D128781E
:107920002A2810D06FF02F022878A0F13001092901
:1079300014D80AEB8A0102EB410144F0020400EB87
:10794000010A6D1CF0E701CF5FEA000A03D544F499
:107950000054CAF1000A44F002046D1C28782E2855
:1079600017D115F8010F44F004042A280ED06FF047
:107970002F022878A0F1300109290AD809EB8901E2
:1079800002EB410100EB01096D1CF2E757F8049B83
:107990006D1C28786C280FD006DC4C2817D068287E
:1079A0000DD06A2814D104E0742810D07A280FD1A1
:1079B0000DE044F400140AE044F4801401E044F4BF
:1079C00040146978814202D104F580146D1C6D1C4D
:1079D00028786E281ED00CDC632830D004DC002808
:1079E0008BD0582811D19FE0642867D069280CD12A
:1079F00064E073282DD004DC6F2872D0702804D185
:107A000094E075286ED078286DD0DDE90F1290478C
:107A1000761C4BE1C4F30250022806D0032809D09B
:107A2000042801CF09D0066040E101CFF117C0E979
:107A300000613BE101CF068038E1067036E117F8BE
:107A4000040B8DF8000000208DF80100EB460120AA
:107A500003E057F804BB4FF0FF3061074FF000011F
:107A600002D40DE008F10101884649450FDA80454E
:107A7000F8DB1BF808100029F4D108E008F1010137
:107A800088468142FADB1BF808100029F6D1DDE9AF
:107A90000F23AAEB08008146214600F031F930445B
:107AA00000EB080604E0DDE90F121BF8010B90471C
:107AB000B8F10108F7D221464846F2E00A21C4F3A2
:107AC00002524FF0000B0891022A04D001CFC117D7
:107AD000032A09D00AE0FF1D27F00707F7E8020193
:107AE00008E02CE01EE01FE000B2C117042A01D11B
:107AF00040B2C117021E71F1000206DA0023D0EB7A
:107B0000030063EB01012D2202E0220504D52B22A4
:107B10008DF82420012203E0E20701D02022F7E7BC
:107B2000904653E00A210BE0102109E010214FF0AC
:107B3000000B44F004044FF00809089103E0082109
:107B40004FF0000B0891C4F30252022A04D001CF77
:107B50000021032A06D006E0FF1D27F00707F7E8FB
:107B6000020103E080B2042A00D1C0B24FF0000845
:107B700022072BD52A78702A07D0DDF820C08CF098
:107B8000100C5CEA0B0C05D00EE040228DF824208E
:107B9000012208E050EA010306D030238DF824309A
:107BA0008DF8252002229046089B83F0080353EAB3
:107BB0000B030BD150EA010201D1620706D5302236
:107BC0008DF824204FF00108A9F101092A78582ADC
:107BD00004D038A20B9208AA0A920BE03AA2F9E765
:107BE0005B46089AFFF700FC0B9B9B5C0A9A521EAF
:107BF0000A92137050EA0102F2D10A98ADEB00002C
:107C000000F1200B600702D524F4803401E04FF02E
:107C10000109D94502DDA9EB0B0000E0002000EBD3
:107C20000B0141440890AAEB010AE00306D4DDE908
:107C30000F232146504600F063F806444FF0000938
:107C400008E009A911F80900DDE90F12904709F1D0
:107C50000109761CC145F4DBE0030CD5DDE90F23F7
:107C60002146504600F04CF8064404E0DDE90F12CE
:107C700030209047761C0899481E08900029F5DCB2
:107C800008E00A980A990078491C0A91DDE90F1268
:107C90009047761CBBF10001ABF1010BF1DC2146F2
:107CA0005046DDE90F2300F019F806446D1C21E66B
:107CB00009280100303132333435363738396162C2
:107CC0006364656600000000303132333435363786
:107CD0003839414243444546000000002DE9F04157
:107CE000044600251E461746880404D405E039469C
:107CF0002020B0476D1C641EF9D52846BDE8F081F0
:107D00002DE9F041044600251E469046C80301D5E2
:107D1000302700E02027880404D505E04146384696
:107D2000B0476D1C641EF9D52846BDE8F081800778
:107D300001D00020704701207047C3688B4206D8ED
:107D400011440069491E814201D80120704700207A
:107D5000704790F82400012801D01F207047EE20C2
:107D6000704710B501220221002001F049F908B145
:107D7000072810D107220221012001F041F908B1A2
:107D8000072808D100210A22084601F039F908B174
:107D9000072800D1002010BD10B5ACB00824AC21DC
:107DA0006846FFF77AFB02208DF8000000208DF86E
:107DB000020006208DF803000120ADF84C008DF87C
:107DC0007C00104920201491229047F230502390DB
:107DD0000D48299069460D4800F0E9FA08B100F015
:107DE000AFF80121094800F0DFFA0848224690F870
:107DF0005410012077DF002801D000F0A1F82CB04A
:107E000010BD0000042B002049C20200A02E00205B
:107E1000022000F0F7BF000070B50024064D06E018
:107E20006868012110F8340003F0E2FE641C287831
:107E30008442F5D3002070BD502C0020F8B51646C2
:107E40000C4605460A2A01D20720F8BD03F0C8FFF8
:107E500018B903F089FF0028F7D1134F20211348E8
:107E60007D603C70BE60FFF718FB0020C7E904008E
:107E70000F4E0DE005EBC4003168009181788DF85C
:107E8000011000780B4A694603F0FEFE0028DCD1A1
:107E9000641EE4B2EED2BDE8F84005480021064A6F
:107EA000001D00F077B80000502C00207035002035
:107EB00098D60200D59D0200D197020010B572B687
:107EC00003F0CAFA03F07EF90028FBD111481249E9
:107ED000401AC408012000EB044010A103F08CFA02
:107EE00011480068C00700D000BE022000EB04402B
:107EF0000EA103F081FABFF34F8F0B48E4380168FD
:107F00000E4A01F4E06111430160BFF34F8F00BFDF
:107F1000FDE7000028E20200B0E102004661746162
:107F20006C206572726F7200F0ED00E0537973742B
:107F3000656D207265736574000000000400FA0529
:107F40000EB500210091CDE901106A4644F201000E
:107F5000FFF7B4FF0EBD10B58268C368934203D02B
:107F600001F04AFE002010BD052010BD10B582684A
:107F7000C3689A1A83889A4203D801F047FE00200A
:107F800010BD042010BD0000014801F088BC0000B5
:107F9000902C002010B55AB100684FF0FF34012931
:107FA0004261C0E9024400D000210161002010BDFF
:107FB000072010BD38B511480823582241680091A8
:107FC0000F49006802F093FB002815D10D4A69465D
:107FD0000D4801F069FC04000ED101210A4801F0AE
:107FE000DEFC0123094A1946074801F030FC064926
:107FF000012008390870204638BD0000A0D60200D4
:10800000A03500201DC70200902C0020FFFF7F003C
:10801000F8B50446002617460D468DF80060684600
:1080200000F06CF8D4E90201C04370EA010005D009
:108030009DF8000000F086F80020F8BD01F0B0FEC9
:1080400040197141C4E902019DF8000000F07AF87E
:10805000A761206900B125612146BDE8F8400020F4
:1080600004F026BE38B5044600208DF800006846AE
:1080700000F044F8D4E90201C04370EA01000DD0D9
:108080004FF0FF30C4E902009DF8000000F05AF8FC
:108090002146BDE83840012004F00ABE9DF80000EA
:1080A00000F050F8002038BD10B501461048FFF729
:1080B0005DFF040019D10F480F4A0178515C19B1D6
:1080C000001D04F03DF802E00C3003F0D3FF60B96E
:1080D000084907480839FFF73EFF30B90549012232
:1080E0000839044802F0A4FD0446204610BD0000F3
:1080F00008360020B42C0020182C002030B5EFF3F7
:10810000108172B60D4A9468012324B103700029CE
:1081100000D162B630BD93604FF0E023D3F88051B8
:10812000074C25401560C3F88041D3F88441546062
:108130005A17C3F8842100220270E8E7183600209D
:10814000FC06FFBD0B498A68002A11D000280FD118
:10815000EFF3108072B60B684FF0E022C2F80031E6
:108160004B68C2F8043100228A60002800D162B650
:10817000704700001836002070B51500044609D07D
:108180000020286034B1206820B1A079800703D096
:10819000072070BD0E2070BD084600F01BFBC0B26A
:1081A000142804D02179814203D8042070BD052011
:1081B00070BDE288216800FB02102860002070BDBD
:1081C0002DE9FC47002517880646158090F82D00FC
:1081D0001446894630B13A462146484600F00EFB27
:1081E000051E09D1B0784FF00C0A18B32088C84694
:1081F000001DB84202D95046BDE8FC87684679DFC9
:108200000028F9D12088032108F8001020881921BE
:10821000401C80B2208008F800102088401C80B2EA
:10822000208000EB0801BDF8000005F07FF82188F0
:1082300008442080F0780222C8B1218896F90330E2
:1082400001F1030C4846BC45D5D8425421884FF073
:10825000010C491C89B2218000F801C02188491C09
:1082600089B2218009F801302088401C2080706884
:10827000B8B1218890F9003001F1030C4846BC45A3
:10828000B9D8425421880A22491C89B2218042541B
:108290002188491C89B2218009F801302088401CBE
:1082A0002080308950B1CDE900474B46062202219B
:1082B00006F1080005F0A2F8051E9DD1308A50B1E4
:1082C000CDE900474B460722032106F1100005F0D7
:1082D00095F8051E90D1308B50B1CDE900474B4643
:1082E0001522142106F1180005F088F8051E83D127
:1082F000306A30B13B462246494601F09EF9051EE0
:10830000DBD1706A30B13B462246494602F0BCF8E8
:10831000051ED2D196F82C0038B13B46224649467C
:10832000304604F007FB051EC7D1307838B13B4614
:1083300022464946304602F087F9051EBDD128463F
:108340005AE718B504460020ADF8000013466A4607
:10835000204600F006F8002802D0BDF800002044B6
:1083600018BD70B5E0B1DAB1002402E0045D2C4420
:10837000A4B2651C8D4206D21688A642F6D806190C
:1083800076789E42F2D18C420AD2A31C005D9BB249
:1083900000B1401E0004000C02D01C188C4201D910
:1083A000002070BD138070BD80F8301070472DE93B
:1083B000F0410D00044606D02CB195F87A00002655
:1083C000012803D006E00E20BDE8F08195F8980062
:1083D000012821D04FF00108A6702C2205F1780168
:1083E000201DFFF741F884F83060D5F8A4006063E1
:1083F000D5F8A800A0634FF6FF70A4F8240404F594
:108400008260C4F82004C4F82664A4F82A6484F8BE
:108410002C64207810B104E00720D5E7FF2084F811
:10842000540004F155072046C4F81074FFF791FC7E
:10843000A4F8140404F2144239462846FFF7C0FE9B
:108440000028C1D104F23120C4F818042046FFF7F7
:1084500080FCA4F81C0404F21C4205F13C00D4F892
:108460001814FFF7ADFE0028AED184F85180208BA0
:10847000A4F8480084F83C80266484F85060606961
:1084800000216064454604F13C02781E72DF00283A
:108490009AD1257098E710B50288102A1BD0112AAE
:1084A00020D0262A1DD1007A0C46012801D00228AE
:1084B00017D1A0780521401CB0FBF1F201FB12019D
:1084C000204600F03AF800280BD0A16B002908D014
:1084D000BDE810400847C27B012A02D18088A1F87C
:1084E000240410BD0C46002184F82E148088B4F8B2
:1084F00024148842F5D120790028F2D10121DFE748
:1085000010B5044690F8540074DF012084F82E045E
:10851000002084F8300484F850000621204601F041
:1085200083FB002808D1A178204600F006F810B19E
:10853000A16B01B18847002010BD2DE9F05F044612
:1085400000780F4698B1A7700025C4F82654A4F807
:108550002A5484F82C54A079012608B1012F09D09F
:10856000E07980B1012F05D0022F03D00BE0082065
:10857000BDE8F09F616B21B184F82D640820884725
:1085800001E084F82D5404F2274100200A5C0AB16E
:10859000304603E0401C0628F8D300204FF00208C4
:1085A0004FF0030B012F06D0022F0CD0032F0FD05A
:1085B000042F15D110E0A17929B194F8241011B934
:1085C00008B130460DE0E17911B108B1404608E04C
:1085D000207A08B1584604E0607A08B1042000E02F
:1085E0002846A070616B41B1032801D0042804D152
:1085F000607910B194F82E0498B184F82F5404F1E6
:108600003C0018210746FEF748FF84F83C6004F15F
:108610002C0003F07BFF58B194F82C0084F8510033
:1086200008E084F8305484F82F6407208847E6E790
:1086300084F8516094F8240058B104F1280003F044
:1086400065FF20B194F8280084F8520001E084F816
:10865000526084F85050A27804F2264104F58269F1
:108660004FF0060A052A64D2DFE802F07C030F22ED
:10867000420084F83160C4F82054C4E9101584F82D
:108680003C808020A4F8480055E084F8318094F8BC
:108690002420384612B10722027001E080F800B0B1
:1086A000228A8281C4F820544160E168B96042E0C6
:1086B0006069B860208BB88194F824003D4600289A
:1086C000204602D084F83CA001E084F83C6004F02D
:1086D00067FE50B185F814800421204601F0A4FA09
:1086E00038BB052184F8311021E084F831B01EE058
:1086F000E069B860208CB88194F824003D460028D9
:10870000204602D084F83CA001E084F83C6004F0EC
:1087100047FE48B185F814800421204601F084FA10
:1087200038B984F831A002E0042084F83100C4F89C
:108730002094A07878B13A4604F15400D4F820147B
:1087400072DF00287FF414AF94F8301094F85400CE
:1087500073DF0028F6D1616B11B194F831008847BE
:10876000002005E784F83150F5E7000070B50400FB
:1087700012D001461C221448FEF776FE1248134D13
:108780000560206850B17ADF002806D120680168B2
:1087900029604068686005E00E2070BD0B487BDFF3
:1087A0000028FAD108484FF6FF711438084A20F81B
:1087B000041B0549343901600021FFF7EBFB002859
:1087C000EBD0032070BD000084330020102C00206B
:1087D00039D3020010B5044600F006F808B120466F
:1087E00010BD142010BD0000142801D300207047D4
:1087F0000146014801F0C5BFA43300207CB5054601
:1088000008880C460930904201D90C207CBD68468E
:108810006DDF0028FAD121880820685420881B21A8
:10882000401C80B2208029542088401C80B22080C7
:108830002844DDF801100160BDF805108180208812
:10884000801D80B220809DF80010490800D00121D1
:1088500029542088401C208000207CBDF8B52B4D79
:1088600001880446EE8821293BD015DC2848294A96
:108870001029A0EB02004FEAD0004FF0030202EBF8
:10888000004013D0112925D0132929D100231A46DD
:10889000852130467FDF17E03B2933D052292BD08A
:1088A00056291DD18088132176DF0DE01AA102F030
:1088B000A3FD072000F0C6FB08B1FFF741FBA1882C
:1088C000E980184802F0BAF8002809D0BDE8F8405D
:1088D000FFF736BB14A102F08FFD4FF6FF70E88062
:1088E000F8BD1548694600680090A0888FDF002811
:1088F000F6D0FFF725FBF8BD00231A46194630468F
:10890000B1DFE1E78088132176DFDDE7E82A002088
:1089100028E20200B0E10200436F6E6E6563746589
:1089200064000000942E0020446973636F6E6E65CE
:10893000637465640000000030D5020010B51A4C65
:108940000188606810290ED011292BD1401E60606B
:1089500028D1FFF706FA002824D02168002921D069
:10896000BDE810400847D0B900210122084600F0B8
:1089700047FB08B107280FD107220221012000F090
:108980003FFB08B1072807D104220221002000F094
:1089900037FB20B1072802D0216801B18847606801
:1089A000401C606010BD0000082C00202DE9F0473D
:1089B00001883B4E40F2F3194FF6FF7510291BD08A
:1089C00011293ED0122954D0502946D1C188F289AC
:1089D000841D914241D1618902293ED18688304669
:1089E00001F016FA050038D004F10C0000F0C2F9CD
:1089F000A8B3294630464EE0C17B8788044601294A
:108A00002BD1A846284601F003FA050017D02F8085
:108A100000202872234843464A460168C5F80A10D8
:108A20004068C5F80E0004F1100105F10A0001F0DC
:108A3000EEFA6872F08900280FD129462AE0042056
:108A400013E0808801F0E4F9040006D06068FFF7C5
:108A500009FB08B103F066FF2580BDE8F087FFE75A
:108A60006868FFF7FFFA0028F7D0BDE8F04703F089
:108A700059BF87880646384601F0CAF90400ECD091
:108A80002B464A4606F1080104F10A0001F0BFFA3C
:108A9000607221463846BDE8F04700F015BE000080
:108AA00084330020102C00202DE9F04F04468688E6
:108AB0000188424897B0834610290CD0112950D024
:108AC000103019296AD01A2974D1217A0C09042C82
:108AD0004DD301224CE0394D083DA868C0430B90AE
:108AE00069680BA801F06EFE0B990CA800F086FDDA
:108AF0002C220CA96846FEF7B7FC0027E946A846D9
:108B000010E000BF09EB47005FF00005B0F804A0DB
:108B100008EB85005146001D01F028FE6D1C1E2D3E
:108B2000F6D37F1C0098B842ECD8142E05D317B0AA
:108B30000420BDE8F04FFFF703BA3146584601F074
:108B40002BFE314608F1040001F026FEE07B0228EE
:108B500030D117B03146BDE8F04F1848001D01F084
:108B60001BBE17B03146BDE8F04F01F0FFBD00223B
:108B7000314601F054F8032C01D3012200E0002219
:108B80000E4831460C3001F04AF8022C01D3012284
:108B900000E0002209483146083006E0217A002929
:108BA00008D1617AC1F3C002314617B0BDE8F04F79
:108BB00001F035B817B0BDE8F08F0000A8330020F1
:108BC000F0B585B016460F4604001D4614D004AA21
:108BD00019466069FFF7D0FA00280BD1A5F57F4050
:108BE000FF380BD0049848B1007848B13088F42899
:108BF00008D9072005B0F0BD0E20FBE70520F9E7F6
:108C00000820F7E700200090019002900390A088D0
:108C1000ADF8000001208DF80200CDE90267694639
:108C20002846AEDFE6E7000070B5334D04008EB095
:108C30002DCD08AE86E82D005BD0E9B30868A061B1
:108C4000214608A862DF002851D1207801258DF83F
:108C50003200ADF83050A21C0CA92846A8DF00282D
:108C600045D120216846FEF718FC0220ADF800002F
:108C700020788DF802008DF80C509DF80D00F42638
:108C8000ADF8046040F00C008DF81150ADF80650BE
:108C90008DF80D008DF81250608804F10C026946C1
:108CA00000F0B6FB002822D120216846FEF7F5FB34
:108CB0000320ADF8000000E01BE020788DF80200F2
:108CC0008DF80C509DF80D008DF81150ADF8046032
:108CD00040F010008DF81250ADF806508DF80D00E0
:108CE0008DF813506088221D694600F091FB0EB08C
:108CF00070BD0E20FBE7000058D6020030B587B0EB
:108D00000446002928D0002C26D0084621881029A6
:108D100024D0502928D057291ED10546A188406962
:108D20006A46FFF729FA002816D100980078002833
:108D300012D0A86900280FD0182101A8FEF7ADFBBA
:108D400001208DF804000295A088ADF80C00009871
:108D50000490A96901A8884707B030BD07B0214633
:108D6000BDE8304003F0B0BA07B02146BDE830405E
:108D700003F08ABB007800F0010070470149085CED
:108D80007047000010D60200084908B5085C009042
:108D9000684602F071F9D0F810050099C84010F04B
:108DA000010000D0012080F0010008BD10D60200B3
:108DB0002DE9FC410646C0074FF000050ED0104FCC
:108DC00000240122385D009500231146019502F030
:108DD000C3F8641C042CF4D300F04EF8B0070DD592
:108DE000074E0024361D0022305D032300951146F6
:108DF000019502F0B1F8641C042CF4D3BDE8FC81A9
:108E00000CD60200094908B5085C0090684602F0DB
:108E100033F9D0F80425009B0121994021EA02038F
:108E2000C0F808351140C0F80C1508BD0CD602007A
:108E30000249085C012102F09DB900000CD6020035
:108E40000249085C002102F095B900000CD602002E
:108E5000084908B5085C0090684602F00DF9D0F8A2
:108E600004050099C84010F0010000D0012080F0F6
:108E7000010008BD0CD6020010B500242046FFF703
:108E8000D7FF641C042CF9D310BD10B50024204674
:108E9000FFF7D6FF641C042CF9D310BD10B50246B1
:108EA000064B4FF0FF3000215C5C944201D1084634
:108EB00010BD491C0429F7D310BD000010D60200D4
:108EC00070B50C4E0C004FF0000530600BD0012047
:108ED00000F06AF808B1022004E0002000F064F815
:108EE00000B10B202070706810B9FEF73AFF0546FC
:108EF000284670BD082C002010B5002000F0DCF9D9
:108F000008B1062806D1012000F0D6F908B10628DC
:108F100000D1002010BD00002DE9F0470D4681462C
:108F2000FFF7BCFF0446042836D2DFF874801B48E4
:108F30001C4EA8F10C0725B3012D0ED0022D2BD10C
:108F400004EB440030444578002D25D0B968002951
:108F500022D02846BDE8F047084704EB4401755C81
:108F60000E44717849B10E4A4FF48041093A806845
:108F7000FFF74EF808B987F80390B17808F80410A5
:108F8000E2E78068FFF76EF804EB4401314418F81B
:108F900004008D78A842D7D0BDE8F08714D602002F
:108FA000A02B002040330020042801D2FFF7ECBEA4
:108FB000002070470146104810B5C088042907D02A
:108FC00007290ED00A2915D1BDE8104003F00EBDC7
:108FD000132176DF0CE000280CD0BDE81040FEF72E
:108FE000AFBFA0F57F41FF3904D10448FFF788FAED
:108FF0000828F0D110BD0000E82A0020A02E002093
:1090000070B50023042810D20D4D00EB4004012A56
:1090100002D101290CD00022094E00EB400030445F
:1090200061B1012906D0022906D00723184670BD78
:109030000E30C2B22A55F9E74270F7E78270F5E7C1
:1090400040330020044A014600201279D20702D0A2
:10905000084600F04DB87047942B002070B50646C6
:109060001E480024C0E90161B00720D50025012277
:1090700011462846FFF7C4FF6D1C0446042D02D29A
:10908000002CF4D013E094B940F233320421144898
:10909000FEF7D4FE04000AD1FEF7BEFE040006D19E
:1090A0000F48104A0021001FFEF774FF0446F00726
:1090B00012D00120FFF77CFE74B909480A4A00214A
:1090C0000C38FEF767FF040006D10548074A012166
:1090D0000838FEF75FFF0446204670BD942B002041
:1090E00020D602009593020085A00200117E0200A6
:1090F0002DE9F05F6E4C054600266078B34618B146
:1091000084F801B000F0A6FF6A4F4FF47A694FF47B
:10911000C87A4FF00108182D69D2DFE805F00C136A
:1091200013384754696E727B727BC584848484844F
:10913000B3B6B9BCC5C500F08DFF3868FEF792FF25
:1091400006465CE00020FFF783FE00284FF0000099
:1091500008D0FFF76DFE022D02D14FF4E16008E068
:10916000484606E0FFF76CFE022D01D1C82000E062
:109170005046410CC0034FF47A72801841F100014F
:10918000257052000023FEF72FF901462AE0002047
:10919000FFF75EFE00284FF0000004D0FFF748FE06
:1091A0004FF44870E5E7FFF74BFEDFE70020FFF7DD
:1091B0004FFE00284FF0000002D0FFF739FECFE746
:1091C000FFF73EFED4E70020FFF742FE00284FF0F5
:1091D000000002D0FFF72CFE01E0FFF731FE257002
:1091E00040F6CD4100223868FEF712FF064646E001
:1091F0000020FFF707FE257008E0002051E02570F1
:109200003DE084F801800120FFF7FCFD002240F2E0
:109210006661E8E784F801800120FFF7F3FD002292
:109220004FF40051DFE77868FEF71CFF0646D5F1E2
:10923000110000D02EB10220FFF7FAFD84F802B031
:109240001DE0012816D980B2C8214843C117C903BF
:1092500041EA5041C0034FF47A72801841F1000195
:1092600052000023FEF7C0F8014600227868FEF79E
:10927000CFFE06460220FFF7E3FD84F80280304669
:10928000BDE8F09F00F0E6FEB9E700F0E3FEB4E7CA
:1092900000F0E0FE04E000F0DDFE0020FFF7D0FD6E
:1092A0000120FFF7CDFDAAE7FFF7EFFDA7E70000DC
:1092B000942B002014D60200012104F011B9000003
:1092C0002DE9F84F0546861C00208DF800009146D8
:1092D0000F464FF0010A6846FEF710FF1B4C04F2E0
:1092E0001C4860683860D4E90101194F401A396898
:1092F000081A0EE00121404601F05EFA00F0DAFEA5
:109300000146404601F058FAD4E90101401A396893
:10931000081A401C8642EDD8B9F1000F03D0052091
:1093200065F3891002E0062065F39F5061683A6892
:10933000114004EB8101C8606068304460609DF8B2
:109340000000FEF7FFFE5046BDE8F88F38380020D9
:10935000E82C0020044881684068814201D1012046
:10936000704700207047000038380020034630B5B1
:10937000074800210478426806E000BF02EBC10004
:1093800005789D4203D0491CA142F7DB002030BD87
:10939000502C002000780221FFF7BEBD05494FF098
:1093A000FF32082841F8202002D3084480F85820D2
:1093B0007047000030340020F0B54FF0FF3512B197
:1093C0000023082601E008230C260C4C05E000BF12
:1093D00054F823707F1C04D05B1CB342F8D328469A
:1093E000F0BD26185DB286F8305044F82310002AEC
:1093F000F5D1E11881F85800F1E700003034002081
:109400000249084490F930007047000030340020D1
:109410002DE9F0438146887891B090460C4600B91A
:1094200001208DF83E002088ADF83C000025009515
:10943000607C694603F0C2FA6E46A07C711C03F0A2
:10944000BDFAE07B00289DF8020002D040F0080041
:1094500001E020F008008DF80200217C11B140F0FD
:10946000100001E020F010008DF80200217B11B106
:1094700040F0010001E020F001008DF80200217DA4
:1094800009B1022100E0012161F342008DF80200E0
:109490001C2102A8FEF701F8607BC10601D48006FA
:1094A00017D50E950EAFE07C791C03F087FA9DF876
:1094B0003800079720F00F00401C20F0F00010301B
:1094C0008DF838009DF83A0020F00600801C8DF8D9
:1094D0003A00607B8DF80800A07B8DF8090014210C
:1094E00009A8FDF7DAFF0FA8CDE90906A088ADF8B5
:1094F0003000A06820B1E088ADF82C00A0680D9085
:10950000A06998B301950088ADF81000A06901AD7D
:1095100001A94088ADF81200A06940680695039043
:10952000A069007B03F04AFAA069691C407B03F044
:1095300045FAA069807A00289DF8060002D040F024
:10954000080001E020F008008DF80600A169C97A42
:1095500011B140F0100001E020F010008DF806007D
:10956000A169097A19B140F0010002E00DE020F094
:1095700001008DF80600A169897B09B1022100E094
:10958000012161F342008DF80600E06900B1059009
:10959000434609AA02A94846AADF11B0BDE8F083F4
:1095A00070B5084C050009D010342168002907D097
:1095B00008682060496828468847F6E70834F4E7D9
:1095C00070BD00001C340020054A012120B1012893
:1095D00005D19170FFF7E4BF51700020FAE77047A2
:1095E0001C34002010B5D0E90234D1E90220D11A90
:1095F000A04101D3012010BD002010BD73B58CB077
:109600000646002000900D9880B100246D4621464A
:109610000DA801F0B6F830B1009805EB4000848049
:109620000098401C0090641C142CF0D32C22694636
:109630003046FDF719FF0EB070BD2DE9F0411788D7
:109640000646B81D14460D46984202D90C20BDE8C6
:10965000F0813188072206290AD34FF4486C4FF66F
:10966000FF73614501D9994202D17088062801D261
:109670001046ECE7604501D99842F9D1994203D0F0
:10968000984201D08142F3D80520E8552088122164
:10969000401C80B2208029542088401C80B2208049
:1096A0004119308803F042FE2188084480B22080AE
:1096B0004119708803F03AFE218808442080002078
:1096C000C5E7FEF73DBC000038B54A7A0F4B62B1E2
:1096D00000220A725969002906D001228DF8002063
:1096E000ADF802006846884738BD0A7A62B19B68C7
:1096F0004C68024619462046FEF78AFC0028F3D043
:10970000BDE8384003F00EB95B68F1E78433002010
:1097100070B588B00646002005900690ADF814108C
:10972000ADF816100190029001AA05A9304690DF0D
:10973000050021D002F0DAF90346114811493246FA
:10974000401AC108012000EB014004460E4901F017
:109750005EFEBDF8042012B9BDF8060028B1BDF8C0
:109760000630204609A101F052FEBDF808201AB1CA
:109770002046164901F044FE08B0284670BD00009E
:10978000B0E10200B0E102007CDA0200546865201A
:109790007265717565737465642054582F52582032
:1097A0007061636B6574206C656E677468206973A3
:1097B00020746F6F206C6F6E672062792025752F83
:1097C0002575206F63746574732E0000C8DA02007B
:1097D00070B500240F4D10E0686800EBC4063078C7
:1097E00002F0BAFA7178012901D0012100E00021CC
:1097F0004140307800F086F9641C28788442EBDB25
:10980000D5E90401084303D0BDE8704003F06CBA09
:1098100070BD0000502C002010B50021024800F05F
:10982000DCFF80F3100010BD543C00204FF4803268
:109830008A400168C1F848230068C0F808237047CF
:109840004FF4A07202EB810189B200F0CBB92DE98F
:10985000F04105460E464FF4A07000EB860081B241
:1098600028684FF48034B440984622F07F47C0F80F
:1098700008432868C0F84843286801F0ADFE28680E
:1098800000EB8600C0F840752868C0F84443B8F182
:10989000000F02D02868C0F80443BDE8F0810068DA
:1098A000D0F804057047000070B54379234C44F8A4
:1098B00023204279231D03EBC202224C1579204A52
:1098C000121BD4082DB10825022000EB04401EA174
:1098D00030E005680A88C5F8082590F904208978E1
:1098E000002A4FEA411104DB02F1E02282F8001461
:1098F00005E002F00F0202F1E02282F8141D90F957
:1099000004100122002909DB01F01F0502FA05F508
:109910004909890001F1E021C1F800514179002590
:1099200003EBC1010A71417943F83100032000EBD8
:1099300004400EA101F060FD284670BDC82C002037
:1099400008E20200B0E1020052544320696E7374D1
:10995000616E636520616C726561647920696E690E
:109960007469616C697A65642E0000005254433A50
:1099700020696E697469616C697A65642E00000003
:1099800090F90400002809DB00F01F02012191403A
:109990004009800000F1E020C0F8001270470A463C
:1099A000022100F0A5B84FF4827100F01BB90068E5
:1099B00001210160704700680121416070472DE975
:1099C000F05F07460C464FF4A07000EB84001FFACE
:1099D00080FA38684FF48036A6409B4622F07F45D7
:1099E000C0F848633868C0F808633868D0F8048560
:1099F00000EB8402D2F84095C2F8408551463868A1
:109A000001F0EAFDA9EB080020F07F40012806D113
:109A1000102002F0E5F85146386801F0DDFD3868A5
:109A2000D0F80485C0F84463A5EB080121F07F411C
:109A30003868012900EB840010D0C0F84055386820
:109A4000D0F804156FF07F4C6A1A521E22F07F4244
:109A5000ACEB0B03934217D362B118E06D1CC0F856
:109A60004055102002F0BCF83868D0F80405404595
:109A70000AD10CE000EB84006D1CC0F8405538683A
:109A8000D0F80405884202D00D20BDE8F09F0122E5
:109A90003146384600F02CF80020F6E730B5044691
:109AA000006887B00D46806800281FD018216846DE
:109AB000FDF7F3FC0195A0680590207910B101280D
:109AC00010D107E001208DF8000020690290E068C5
:109AD000039005E002208DF80000E068000302908A
:109AE00060690490206881686846884707B030BD87
:109AF0000368C3F84413002A02D00068C0F80413B6
:109B0000704700002DE9F84F0E463449804601EBBE
:109B10005001C007097801D00F0901E001F00F07DB
:109B20004FF00009424601204946FDF78EFCDFF860
:109B3000B0A004460D46052F4ED2DFE807F003160D
:109B40001B282C00002E47D00121404602F0C0FF08
:109B50008DF800906846FEF7D1FA5046D0E904121D
:109B60000C431543CAE9044532E00EB1022114E06A
:109B7000002112E04EB10321404602F0A9FF404609
:109B8000BDE8F84F012103F029BC012105E0002EBA
:109B900022D1042101E02EB103214046BDE8F84F57
:109BA00002F096BF0021404602F092FF002140469D
:109BB00003F014FC8DF800906846FEF79FFA5046BB
:109BC000E243D0E904341A4024EA0501CAE9042139
:109BD0009DF80000FEF7B6FABDE8F88F703500205A
:109BE000502C002010B5006842581AB101F0F4FC66
:109BF000012010BD002010BD826883881A400368D0
:109C00009A5C0A708168491C81607047C2688388C9
:109C10001A4003689954C168491CC16070470AB171
:109C200000F0BABD00F0A2BD70B50D460446B0F814
:109C30001414D0F810040122FEF783FB00B1057064
:109C400004F13C0204F5826104F1540072DF70BD3E
:109C500010B50446C0B2FEF727FA204610BD00003A
:109C6000014643680D480E4A801AC008032202EBE1
:109C7000004013B10B4901F0BFBB0A78012A07D09D
:109C8000022A09D18B680A6907A100BF01F0BFBB96
:109C90008B680A6912A1F9E77047000028E2020008
:109CA000B0E1020048D902002D2D3E204576656EB8
:109CB000742072656365697665643A2065726173C4
:109CC000656420256420706167652066726F6D2071
:109CD0006164647265737320307825782E0000000B
:109CE0002D2D3E204576656E74207265636569761C
:109CF00065643A2077726F746520256420627974F8
:109D000065732061742061646472657373203078B8
:109D100025782E000C484A88C3889A4213D10A88B5
:109D2000A2F52063773B0ED18988C91E8AB20281D1
:109D3000064807491346401AC008032101EB0040BA
:109D400004A101F064BB7047E82A002028E2020069
:109D5000B0E1020044617461206C656E206973207B
:109D600073657420746F2030782558282564290085
:109D700010B50949094800F0A7FD08B1FEF7E0F861
:109D8000F721064800F094FD002803D0BDE81040FC
:109D9000FEF7D6B810BD0000159D0200802E0020F1
:109DA00010B50B48FFF77BFD094A083AD2E90434A5
:109DB000C018D2E9063244F10001C31A71EB020265
:109DC00004D24FF08072801841F1000110BD0000F4
:109DD000902C002010B5C0B2FFF7C8FA04460078F6
:109DE00001F0BAFF01466078012801D0012000E0AF
:109DF000002090EA010F08D00449D1E9040108438A
:109E000003D1BDE8104002F06FBF10BD502C002000
:109E10000146034802888A4200D0002070470000B3
:109E2000703300202DE9F041164C07460E4620788D
:109E3000154628B113463A46134914A0FDF71AFDFA
:109E4000EBB232463946682003F058F8207898B1D2
:109E50000024154F0BE000BF04EA070003280ED0D2
:109E600012A3325D214612A0FDF704FD641CAC4232
:109E7000F2D314A0FDF7FEFC0020BDE8F08111A391
:109E8000EFE70000902B0020B0D502004578656315
:109E90007574696E67202573283078253032782CE8
:109EA00020256C64290D0A00030000802C2000008E
:109EB0002076616C5B25645D3A30782530327825F8
:109EC000730000000D0A000070B50C4608490546F5
:109ED000097829B102462346064907A0FDF7CAFCC6
:109EE00022462946682003F09BF9002070BD00003F
:109EF000902B0020D0D50200457865637574696E9B
:109F000067202573283078253032782C203078254A
:109F1000303278290D0A00007CB514460D460646FD
:109F2000062269463B2000F016F89DF800009DF8D7
:109F3000011000EB012030809DF802009DF8031015
:109F400000EB012028809DF804009DF8051000EB2F
:109F5000012020807CBD70B515460E46044600F0F9
:109F600007F8E0B22A463146BDE87040FFF75ABF15
:109F700070B5064DF02101EA1014A878844204D08F
:109F800021467F20FFF7A0FFAC7070BD602B002042
:109F9000024600201268530713D502F0030001287F
:109FA00002D002280CD105E0C2F383100B68801C9C
:109FB000184404E00223086803EB9252104408603E
:109FC00001207047F8B50E4604464FF48C7101F03D
:109FD0006CFD00281AD00025C4F81851D4F81801D7
:109FE0000090F07F3446FF2806D0A17F11B101F028
:109FF0002FF801E001F0AAF865772572D4E9002175
:10A0000001B004F10800BDE8F0401047F8BDF0B51C
:10A010008488A518944200D82246A41AC288D6186B
:10A020009A4200D81346D21A4B880788BB420CD3F9
:10A030004088834209D88888A04206D3A84204D821
:10A04000C888904201D3B04201D90020F0BD012060
:10A05000F0BD00000A4810B5807860B1002401E02E
:10A06000022C06D02046FEF7E3FE641C042CF7D336
:10A0700010BD0324F6E7BDE81040FEF7FDBE00006A
:10A08000942B002003480179C90702D00078FFF71C
:10A090002FB87047942B0020F721018017214180B1
:10A0A000002101714171FB2181711B21C171704738
:10A0B000704700002DE9FF410026244800F079FB9D
:10A0C0002248001F074600F074FB214C2149A0687C
:10A0D00000900D6800E000986946284004EB80007D
:10A0E0000C30FFF755FF0028F5D101AA009901EACD
:10A0F000050304EB8303491CDB6842F82030401C55
:10A1000000910228F2D3019800F0030001280BD03F
:10A11000022810D10198032101EB90500099BDF85D
:10A120000A6001EB900005E00198BDF80A60C0F3F9
:10A13000831008440090384600F038FB08B10098BE
:10A14000A06004B03046BDE8F0810000503C002023
:10A1500038380020E82C00202DE9F0470746534806
:10A1600086B00025D0E90223CDE90223D0E90420FE
:10A170000E462C4604959FED4E0A0595CDE900202C
:10A18000DFF830A14FF47A60D0468AED030A00F080
:10A19000DDFC98F80100022802D0062802D031E048
:10A1A00080242FE040F2DC540DF1100905AA484646
:10A1B000911EFFF7B1FE00200DF108086A464B46DC
:10A1C00038F910C033F91010614501DD28F810107E
:10A1D00032F910C0614501DA22F81010401C032842
:10A1E000EEDB9AF80100D046022802D1872000F069
:10A1F000ADFC98F80100062802D10C2000F0A6FC66
:10A200006D1CADB2A542CFD3BDF90850BDF90040D9
:10A21000BDF90A30281900EBD070BDF902204FEAD1
:10A22000600C981800EBD0704FEA6009BDF90C1073
:10A23000BDF904002C1B01EB00089A1A081A04EB64
:10A24000D47402EBD27200EBD07064105210401044
:10A25000A118014400EE101AB0EE081A08EBD878E5
:10A26000F8EEC00A4FEA6808C7F800C0C7E90198CD
:10A2700080EE810A00EE904AF8EEE00A80EE201AA5
:10A2800000EE902AF8EEE00A86ED001A80EE201A21
:10A2900000EE900AF8EEE00A86ED011A80EE201A30
:10A2A00086ED021A06B0BDE8F087000070D5020006
:10A2B000FFEBBF3F602B002088B04FF480410020AF
:10A2C00001F0B6F808B1FDF73BFE00F079FFFDF7AD
:10A2D00071FE08B1FDF734FE61490320FEF7BEFEB2
:10A2E00008B1FDF72DFE69460020FEF7E9FD08B133
:10A2F000FDF726FE01F02AF908B1FDF721FE01F075
:10A3000005FB08B1FDF71CFE0024694601200094FE
:10A3100001F072F908B1FDF713FE684601F004FA86
:10A3200008B1FDF70DFE9DF808004EA120F00F00CA
:10A33000401C20F0F00010308DF808000B2202A81D
:10A340007CDF08B1FDF7FCFD00940620ADF80000AD
:10A3500009200194ADF80200ADF804401420ADF8D6
:10A36000060068467ADF08B1FDF7EAFDFFF700FD59
:10A370003F48019001A93F4800F06BFB08B1FDF791
:10A38000DFFD3D48009069463C48FEF74DFC08B1B2
:10A39000FDF7D6FDFDF700FD1C216846FDF77DF8B1
:10A3A0004FF4A030CDE900404FF4F020029003209C
:10A3B0008DF80C003248059032480690ADF80E40FA
:10A3C0008DF810406846FEF7D1F908B1FDF7B8FDE9
:10A3D00002F008FD00F0CAF8264803210C30FEF711
:10A3E000ACF808B1FDF7ACFD244D224C283D4FF0F0
:10A3F0000A084C3C05F1080605F110074FF00D095D
:10A40000A5F1280A00F0E2F884F8008028886A465E
:10A41000010A6170A0703088010AE17020713888EB
:10A42000010A6171A071E888010AE1712072F08867
:10A43000010A6172A072F888010AE17220730D4965
:10A44000ADF80090BAF806304C390C48FEF7B8FB6E
:10A4500000F0B8FE0028D5D101F08CF8D2E700005A
:10A46000B58F0200777269737462616E645F4C002D
:10A47000B9B50200942E00205DC10200382B0020E7
:10A48000ADC20200C396020070B5144682880E4623
:10A4900005462088111D0144921C994201D8FE2ACC
:10A4A00001D90C2070BD521C32542088FF21401C61
:10A4B00080B2208031542088401C80B220808119D5
:10A4C000288802F033FF2188084480B22080AA88BF
:10A4D00042B1A96841B13044FCF7C6FF2088A98881
:10A4E00008442080002070BD072070BD2DE9F04792
:10A4F000C5881E1DB6FBF5F78946B6FBF5F1044687
:10A5000005FB176C407916686843DDF820A0F71842
:10A51000001F874200D9C61A166001E02468491E50
:10A520000029FBD1A5EB0C078846B74216D818E0E6
:10A5300004EB0C00001D09EB0803BAF1000F3A46CA
:10A5400002D00146184600E01946FCF78DFF24684A
:10A55000F61B4FF0000CB844B54201D9374600E075
:10A560002F46002EE4D1BDE8F087000070B500252D
:10A57000154E25E01448F0224030802110F8254087
:10A58000E0B202F04DFE104AE0B203230C3260212B
:10A5900002F04CFE0C4AE0B203230F32602102F0BD
:10A5A00045FE094AE0B203231232602102F03EFE6A
:10A5B000054AE0B203231532602102F037FE6D1C1C
:10A5C000B0698542D6DB70BDE82A002070B5002452
:10A5D0001B4E31E01A48002240301F2110F8245051
:10A5E000E8B202F01DFEE8B21F2102F07EFCF0701E
:10A5F000E8B200224F2102F013FEE8B20923114A0B
:10A600004F2102F07BFC0F480D4A30F8011F203229
:10A6100049BA22F814104188083249BA22F81410B5
:10A620008188083249BA22F81410C08802F1080162
:10A6300040BA21F81400641CB0698442CADB70BDC2
:10A64000E82A0020742E0020F8B50F460178144641
:10A650000546012901D1687830B12088821C9A42D0
:10A6600032D8012902D006E00720F8BD69780144FC
:10A67000891C994228D8181A801E86B2ADF800604D
:10A680002188B81C084469467DDF0028EDD129786F
:10A69000022904D06878BDF80020904205D3BDF8A7
:10A6A0000000B04201D809200AE00820012905D1A4
:10A6B0006978B14202D8ADF8001001E0ADF8006051
:10A6C000BDF80010FE2901D90C20F8BD2288491CD4
:10A6D000B9542188491C89B2218078542088401CB3
:10A6E0002080BDF80010084420800020F8BD10B57F
:10A6F00031B1B2FBF3F403FB14241CB1092010BDEB
:10A700000E2010BD01600021416081608281C38103
:10A71000084610BD70B50C460546FCF77DFD0028C7
:10A7200002D021882868084470BD10B50A8849887D
:10A730008A4203D1FCF7B2FD012010BD002010BDFC
:10A7400070B50C460546FCF78CFD002802D06188E8
:10A750002868084470BD10B50A8849888A4203D128
:10A76000FCF776FD012010BD002010BD01F01F0395
:10A7700001229A40D243490900EB8100114600F0C2
:10A7800021B84A0950F8220001F01F02012191402E
:10A79000084000D00120704701F01F0301229A40B9
:10A7A000490900EB8100114600F01CB8002100F0BF
:10A7B0000FB8012100F016B808B56A46FCF7C3FDD2
:10A7C000009808BD08B56A46FCF7A3FD009808BDCF
:10A7D00008B56A46FCF79DFD08BD08B56A46FCF75A
:10A7E0007FFD08BD08B56A46FCF786FD009808BDE8
:10A7F00008B56A46FCF7B4FD009808BD38B50446B4
:10A8000000258DF800506846FDF778FC21686268E5
:10A81000086890420ED9401E08600178238AE268D9
:10A8200001FB0325227A2168101AC0B20A798242FC
:10A8300000D208719DF80000FDF784FC284638BD61
:10A8400038B5054600208DF800000C466846FDF737
:10A8500055FCE868298A201AB0FBF1F12A681068D3
:10A86000431C136001709DF80000FDF76BFC38BDC0
:10A8700010B530B1017A42680368891AC9B21A600A
:10A8800006E00E2010BD03681A68541C1C6011708D
:10A89000491EC9B2F7D2006800210171084610BDF7
:10A8A000C20800F007030120895C98400840704707
:10A8B00028B1A1F11702E12A03D3072070470E2027
:10A8C000704701800020704710B560B10161F72129
:10A8D00020F8021B20F8021BFB2100F8021BFFF7E7
:10A8E000DBFB002010BD0E2010BD0000F0B58588F8
:10A8F00093B00C46002D39D1018800263F4F242902
:10A900003BD006DC102909D011290CD0232958D1BD
:10A910004FE03A290BD0552953D129E00146204672
:10A9200001F008FD4DE0A01DFFF7B6FB49E022460F
:10A93000408934F8061F814200D8084660801728F5
:10A9400000D217206080106970B1607960B1D7E9DA
:10A950000001CDE90301ADF80E506088ADF810009C
:10A96000136903A9104698476671267113B0F0BDAC
:10A970000146204601F032FD23E0011D2C2206A8ED
:10A98000FCF772FDBDF81800BDF81C2004EBC001F7
:10A990004A732269AAB1D7E90423CDE90423ADF8AB
:10A9A0001200487B8DF814002269204604A99047C4
:10A9B00007E0017A207B884200D201462846FEF754
:10A9C000A7FEA07A0028D1D0E1882846A5DF01257E
:10A9D00080B11128CAD001F089F802460848094917
:10A9E00013B0401AC00805EB0040BDE8F04006A1D6
:10A9F00000F006BDA672E572B8E7000040D602007E
:10AA0000B0E10200B0E1020073645F626C655F67F1
:10AA1000617474635F65786368616E67655F6D74A8
:10AA2000755F726571756573742829207265747518
:10AA3000726E65642025732E0000000020B102783C
:10AA4000DE2A03D0082070470E2070474180002086
:10AA5000704760B159B10278DE2A0AD009684160B6
:10AA6000DE2101704FF6FF714180002070470E20FB
:10AA70007047082070477FB5054600294DD0002D4E
:10AA80004BD008780C46DE2847D1A88861888842D8
:10AA900002D1204602F090FC2888012825D0022807
:10AAA0003BD011283AD0512837D135F8040F6188AE
:10AAB000884232D1A978A81C02292ED1017A042912
:10AAC00003D0062901D0052927D1002100910222B7
:10AAD0008DF8002001914FF4C07202910391ADF8FE
:10AAE0000420007A05280FD010E0297A2046012999
:10AAF00013D1A988428891420FD10121017204B07B
:10AB0000BDE8704002F058BCADF8041028886946D2
:10AB1000B0DF002801D0616888477FBDA8886188C0
:10AB20008842FAD14FF6FF7060807FBD00F180400F
:10AB30000068002800D00120704708B500F180406F
:10AB4000002101600068009008BD00002DE9F0417F
:10AB5000040007D0044E4FF47A47751C3846A847C6
:10AB6000641EFAD1BDE8F08170D5020070B50D4CBD
:10AB70000125207808B185260EE00020A0606060E5
:10AB80002061E060084800F0FBFF064600F00AFF85
:10AB900008B900F0DFFF257000F0D4FF00B1A57008
:10ABA000304670BD1C340020C995020038B5002520
:10ABB0008DF800506846FDF7A1FA084CE068401E89
:10ABC000E060E06828B900F0BDFF10B900F0E8FFD0
:10ABD000A5709DF80000FDF7B5FA38BD1C340020C3
:10ABE0002DE9F041064604780B4815460F4640F81B
:10ABF0002420083040F82430487B10B1084602F089
:10AC00007FF80DB1054A00E0002223463946301D89
:10AC1000BDE8F04101F024B93C2C0020A5CD020094
:10AC200038B5001D049C009401F0A4F938BD000063
:10AC300030B40378054CE35C1BB130BC001D01F05F
:10AC400029BA30BC0C3001F0C1B90000182C00202A
:10AC50002DE9F04128B1016819B1C969BDE8F04199
:10AC600008470D4D0D480024461B14270DE000BF7A
:10AC700004EB840005EB8000016829B1C9698847AD
:10AC800010B10120BDE8F081641CB6FBF7F0A042D2
:10AC9000EED80020F6E70000042D0020182D00203B
:10ACA000044801214174007A08B100207047012056
:10ACB00070470000CC360020012801D0032808D1BD
:10ACC0000449002201284A7400D00020087401F0D1
:10ACD000D5BC7047CC36002070B50246022801D0A2
:10ACE000032A45D1234C207A002841D0012833D0B3
:10ACF000022831D120480023022A006802D0032A0A
:10AD00002AD11BE0E360017911B1012924D10DE0C2
:10AD1000D0E90565711B4FF48056B14200D331462E
:10AD2000294481614569A9420ED015E00169491C99
:10AD30000161426991420FD1237213E0E168491C1D
:10AD4000E160082908D9E3602372022A0AD00D21A4
:10AD5000FEF7A4FE01F088FC607C28B1BDE87040DD
:10AD600000F026BE0021F3E7BDE8704001F086BC8C
:10AD700070BD0000CC360020E02C00202DE9F84FFB
:10AD800090468A463A493B4A0500A1EB02014FEA48
:10AD9000D1014FF00102DDF828901E464FF00E0061
:10ADA00002EB01441AD0B8F1000F1CD0286800282B
:10ADB00022D00920002E29D069684968B6FBF1F23B
:10ADC00001FB1261002926D000902B4B20462BA2BC
:10ADD00035A100F024FB0920BDE8F88F0090204643
:10ADE000254B3CA203E00090234B20463BA22EA122
:10ADF00000F015FB0E20EFE70820009020461E4BC8
:10AE000038A229A100F00BFB0820E5E700902046BE
:10AE1000194B37A2DCE75046FCF789FF102798B1A1
:10AE20004046FCF784FFA0B1324651462846FCF765
:10AE300084FF98B1CDF80090286833464246C46834
:10AE400051462846A047C7E720460B4B29A200974A
:10AE500008E02046084B2DA2009703E0064B204651
:10AE600033A2009710A100F0DAFA1020B4E7000036
:10AE700020E20200B0E1020060D8020021286C65E7
:10AE80006E202520705F66732D3E705F666C617367
:10AE9000685F696E666F2D3E70726F6772616D5F7D
:10AEA000756E697429000000257320636865636B03
:10AEB000206661696C656420696E202573282920ED
:10AEC000776974682076616C756520307825782EF6
:10AED00000000000705F667300000000705F737216
:10AEE00063000000705F66732D3E705F61706900E3
:10AEF0006C656E00616464725F69735F616C696741
:10AF00006E65643332286465737429006164647209
:10AF10005F69735F616C69676E6564333228287599
:10AF2000696E7433325F7429705F73726329000035
:10AF3000616464725F69735F77697468696E5F6288
:10AF40006F756E647328705F66732C20646573740C
:10AF50002C206C656E2900002DE9FF411C46DDE9BF
:10AF60000A7815460E46684600F086F846EA45011E
:10AF700041EA840141EA072242EA0841009A00EBD3
:10AF80008200C0F80017BDE8FF812DE9FF411C4693
:10AF9000DDE90A7815460E46684600F07BF846EA79
:10AFA000450141EA840141EA072242EA0841009A48
:10AFB00000EB8200C0F80017BDE8FF8170B52028C3
:10AFC000DDE9046502D24FF0A04402E0074C00F036
:10AFD0001F0041EA420141EA830141EA062104EBF4
:10AFE000800041EA0541C0F8001770BD0003005021
:10AFF00013B50C46684600F04DF8009900EB81014E
:10B00000D1F8002722F44032C1F80027009900EB64
:10B010008100D0F8001741EA0441C0F800171CBDB8
:10B020003CB50A4CD4E90034CDE900346B464418F1
:10B0300008E000BF53F82010D1F8205520C2C1F815
:10B040002055401C8442F5D83CBD000068D6020063
:10B0500001B5684600F02CF8009A01219140C0F833
:10B060000C1508BD01B5684600F030F8009A0121C2
:10B070009140C0F80C1508BD0168202902D24FF09C
:10B08000A040704701F01F010160014870470000B7
:10B09000000300500168202902D24FF0A040704701
:10B0A00001F01F01016001487047000000030050DB
:10B0B0000168202902D24FF0A040704701F01F0123
:10B0C000016001487047000000030050016820291A
:10B0D00002D24FF0A040704701F01F01016001480B
:10B0E000704700000003005042094FF0000102D0F9
:10B0F000012A05D102E04FF0FF3101E04FF6FF7168
:10B1000000F01F00012282400A4201D00120704756
:10B110000020704701B56846FFF7BCFFD0F8100566
:10B120000099C84000F0010008BD0000202802D2AC
:10B130004FF0A04202E0044A00F01F0001218140CC
:10B14000C2F80815704700000003005001B56846BA
:10B15000FFF7AEFF009A01219140C0F8081508BD25
:10B1600001B56846FFF7B2FF009A01219140C0F88F
:10B17000081508BD38B501240090684631B1FFF7C5
:10B180007BFF00998C40C0F8084538BDFFF774FF7D
:10B1900000998C40C0F80C4538BD0000034908B543
:10B1A0000844002101600068009008BD0060004074
:10B1B00002494058012800D000207047006000403C
:10B1C000704700002DE9F04F8DB0FEF7C3F818B1BD
:10B1D00000200DB0BDE8F08F7D4C4FF0000BC4F89F
:10B1E00018B4BFF34F8F7B49A06802900D68D84612
:10B1F000284004EB80000BE0D4F8180470B96168B3
:10B200000298814201D8A160E2E7284004EB800067
:10B210000C3002A9FEF7BCFE0028EDD1002009AADF
:10B22000029901EA050304EB8303491CDB6842F839
:10B230002030401C02910228F2D3099800F003014B
:10B24000022902D001294DD0A8E0810D5022894663
:10B25000B2EB905F00D850210E4666F39F500990E4
:10B2600008315D4800F00CF9070077D000F051F983
:10B270004346082209A9384600F060F9029908F10E
:10B28000080A2940681A8000001D864223D9504DC3
:10B290000C3530B1C2B204EB8101301A90460C314A
:10B2A00004E02946F2B2002590462846C6B253462D
:10B2B000384600F043F90AEB08032DB1324629461F
:10B2C0004FEA070000F03AF9029909F1030001EB97
:10B2D0009000029039E004EB810153463246384633
:10B2E0000C31EFE7C0F38311062900D3062161F387
:10B2F00089100990C0F38310801C8100364800F04B
:10B30000BFF807004AD000F004F94346082209A913
:10B31000384600F013F908F1080800260FE00298FB
:10B32000434600EA0501401C04EB8101029004221F
:10B3300038460C3100F002F908F10408761C09982F
:10B34000C0F38310B042EAD847B1D4F81054D4F80F
:10B35000180478B1384600F0E2F834E01EE0E868FE
:10B360004079012804D12A68284639461268904756
:10B37000E8680568002DF2D1384600F0D0F88DF865
:10B3800000B06846FCF7BAFED4F8180408B9029871
:10B39000A0609DF80000FCF7D5FE14E0D4F810443E
:10B3A00005E02168204689688847E0680468002C29
:10B3B000F7D10A480A49401AC008022101EB0040AF
:10B3C00008A100F019F8FDF7C5FF80F0010000E7C3
:10B3D00038380020E82C002048E2020028E2020071
:10B3E000B0E102004261636B656E647320666C7548
:10B3F000736865640000000000231A4601F080BBFA
:10B4000008B5012300926A4601F07AFB08BD1CB51D
:10B41000CDE9002302236A4601F072FB1CBD3EB554
:10B42000069C8DE81C0003236A4601F069FB3EBDC3
:10B43000064910B500200870054800F06EF8002895
:10B4400003D1044800F0BAF8002010BD38380020BD
:10B4500048E2020098D8020070B508480125D0F8EB
:10B460001044057007E0E06845712168204649688E
:10B470008847E0680468002CF5D170BD383800209A
:10B480002DE9F041058A80462D1F4819C01CB0FBEC
:10B49000F5F0C6B24046FFF7B1F9041E19D00020FE
:10B4A000207101206071E58000272546761EC4F8D2
:10B4B00000800BE04046FFF7A1F960B16179491CBB
:10B4C0006171286005467F1CC0F80080B742F1D347
:10B4D0002046BDE8F081204600F002F80020F8E7A1
:10B4E0002DE9F041457901466B1E002201E0096813
:10B4F000521C9A42FBD30F680146002605E03846ED
:10B500000C68FFF79DF92146761CAE42F7D3BDE8E3
:10B51000F0810121001DFFF74FB9FFF7A9B910B560
:10B5200004460121001DFFF763F910F0FF0F04D15D
:10B530002046BDE81040FFF7D3BF10BD1CB50192F7
:10B540000022009201AAFEF7D1FF1CBD064910B5EA
:10B5500000204870091D0860BFF35F8F034904484D
:10B5600000F052FA002010BDD42C0020E0D60200DA
:10B570002436002008B500208DF800006846FCF74E
:10B58000BDFDF1EE100A20F09F00E1EE100ABFF3BE
:10B590005F8F08494020C1F880029DF80000FCF749
:10B5A000D1FD00F0FFF908B141DF08BD20BF40BF69
:10B5B00020BF08BD04E000E0FCF7C2BC82680021A7
:10B5C000916082681161826851618268D16082688D
:10B5D000516080680160704708B5002242504058B1
:10B5E000009008BD20B10349096801600020704740
:10B5F0000E2070471CD902002DE9FE4307460E4677
:10B600000846FFF7EFFF00287CD100240094019446
:10B6100006208DF800704FF00108ADF80400029488
:10B620008DF8028069462020326869DF3649374A42
:10B63000891AC908012202EB014530B100F056FA1F
:10B64000024628463249FFF7DBFE00948DF8018060
:10B650008DF80240019402948DF803406946402021
:10B66000326869DF30B100F041FA024628462949C4
:10B67000FFF7C6FE00948DF80070F720ADF80200C9
:10B680000194029469462320326869DF30B100F0EA
:10B690002DFA024628462049FFF7B2FE0094019495
:10B6A00002948DF8008069460120326869DF30B16C
:10B6B00000F01CFA024628461849FFF7A1FE4FF495
:10B6C000B0600090019402946946A120326869DF5D
:10B6D00030B100F00BFA024628461149FFF790FE00
:10B6E0000094019402948DF800406946A0203268CD
:10B6F00069DF30B100F0FAF9024628460949FFF740
:10B700007FFE0020BDE8FE8338E20200B0E10200C7
:10B7100000E0020048E0020094E0020060DF020066
:10B72000ACDF02000CDF02002DE9F041054607689E
:10B7300060DF804619491A482A68081AC608BA42C2
:10B7400019D9022000EB064416A12046FFF754FE4B
:10B7500020463A461FA12B68FFF759FE4FF0805054
:10B76000D0F80C012968800200F10050421A2046EE
:10B7700025A1FFF745FEB8F100004FF001040AD003
:10B7800000F0B4F9024604EB06402AA1FFF738FEA8
:10B790004046BDE8F0812F480470F9E738E2020026
:10B7A000B0E10200496E73756666696369656E741F
:10B7B0002052414D20616C6C6F636174656420663A
:10B7C0006F722074686520536F6674446576696390
:10B7D000652E00004368616E6765207468652052BD
:10B7E000414D207374617274206C6F636174696F72
:10B7F0006E2066726F6D203078257820746F20304F
:10B800007825782E000000004D6178696D756D20F7
:10B8100052414D2073697A6520666F7220617070A5
:10B820006C69636174696F6E206973203078257864
:10B830002E00000073645F626C655F656E61626C10
:10B840006528292072657475726E65642025732ED3
:10B8500000000000FF2C002030B51548ADF5017D3B
:10B860000078002821D04FF4FA7500BFADF80052DF
:10B8700080A9684661DF38B1052816D00DF5017D35
:10B88000BDE83040FCF75CBB6C460A497DA800F07F
:10B89000BBF806E0D0E90021204690477DA800F0E3
:10B8A000CAF87F980028E1D0F4E70DF5017D30BD9E
:10B8B000FF2C002020D90200F8B5134C2078C0B12D
:10B8C0000120A07001F000F8112814D0022001F02E
:10B8D00013F800258DF800506846FCF70FFC11DFC7
:10B8E000064625709DF80000FCF72CFC2EB1304672
:10B8F000F8BD0820F8BD0020F8BDA57001F096F84D
:10B90000032000F0F9FFF6E7FC2C00207CB5194C71
:10B91000207808B108207CBD0120A070002000F034
:10B92000D3FF112819D0002000F0E6FF12480026AE
:10B93000006801908DF800606846FCF7DFFB0F4956
:10B9400001A810DF05000AD0002020709DF800003B
:10B95000FCF7F8FB2DB128467CBD00207CBD012002
:10B96000F3E7A670667001F081F8012000F0C4FFD3
:10B97000F3E70000FC2C0020B4D80200BD7E0200DA
:10B980000EB50749684600F03FF805E0D0E9001021
:10B990008847684600F04FF802980028F6D10EBD9F
:10B9A000D0D802000148007870470000FC2C00202D
:10B9B0000548817819B1007818B1FFF77DBF0820DC
:10B9C0007047FFF7A3BF0000FC2C00201FB568469E
:10B9D0004BDF30B1052814D004B0BDE81040FCF7AF
:10B9E000AFBA084901A800F00FF806E0D0E900213D
:10B9F0000098904701A800F01EF803980028E6D0B0
:10BA0000F4E71FBD3CD90200016009684160AFF353
:10BA1000008010B5D0E900215368994201D100217E
:10BA200004E0D1E90034A34202D01946816010BD80
:10BA300008314160F0E7816800290BD00268926804
:10BA40000A44826041684B689A4203D108314160E0
:10BA5000FFF7DFBF704770B50D460646446804E047
:10BA6000B2682946904718B1246820680028F7D1A9
:10BA700020682860256070BD406800687047416894
:10BA80000868002801D002680A607047024600205A
:10BA9000526806E08B4203D10868106001207047AD
:10BAA0001A461368002BF5D170474058002800D083
:10BAB000012070470C4A10B502F594730EE0991AF4
:10BAC000C91001EBD171491002EBC1010C6884422D
:10BAD00001D90B4602E005D201F108029A42EED3E9
:10BAE000002010BD486810BD00D7020000B5FFF768
:10BAF000E1FF002800D1014800BD0000ECD60200A3
:10BB00004058002800D00120704708B5002242505C
:10BB10004058009008BD4058002800D001207047D0
:10BB200008B5002242504058009008BD40580028F7
:10BB300000D00120704708B50022425040580090C4
:10BB400008BD000002480068002800D001207047AE
:10BB50000004014008480068012110F0010F06D1DF
:10BB60004FF0E020C02280F800248430C1670349F0
:10BB7000012008607047000000E100E01805004067
:10BB80000649024600200B790BB1852070470A60F8
:10BB900001220A7100224A71704700002C2C0020FB
:10BBA000022010B54107C1F808034FF48270FEF778
:10BBB000C4FF05490120086004480168C1F3004141
:10BBC0000029FAD110BD00000C000040180400400C
:10BBD000002802D0014980010847704791D6020031
:10BBE000002802D00149800108477047C1D60200F1
:10BBF0002DE9F0410D46064600F0A2FC0028304633
:10BC000015D0FDF7FDFB083800F01AFD032802D01F
:10BC100001280AD003E03046FFF77CFA28B103215F
:10BC20003046BDE8F041FFF7E3B90221F8E700F044
:10BC300093FC002822D03046FDF7E2FB04464FF487
:10BC4000807000EB84000E4F81B207EB8400D0F8C7
:10BC5000102542F00102C0F810250846FFF79EFAB1
:10BC6000002D0BD03046FDF7CBFB064951F82000E4
:10BC7000002803D00120A040C7F80403BDE8F081EC
:10BC800000600040303400202DE9FC41DFF8BC802A
:10BC9000044608EB0400002790F930001346C01753
:10BCA0000E46401C01D008274DE0B0781946C0F37D
:10BCB00040022046FDF780FB0546401C42D0B0788C
:10BCC00041071AD4C0070DD068460094FFF7E2F987
:10BCD000009900EB8101D1F8000720F00200C1F8C3
:10BCE000000707E000217378204600910A46019181
:10BCF000FFF74BF9204600F015FCB078800718D507
:10BD00001348317800EB8500D0F81025114B1A400C
:10BD1000C0F810254FF47C524FF4403302EA04225D
:10BD200003EA01410A43D0F810150A43C0F8102570
:10BD300009E008EB0500327810F8581F41EA82113B
:10BD4000017000E004273846BDE8FC813034002053
:10BD500000600040FFC0FCFF10B5FFF7DBF90028D2
:10BD600000D0012010BD000070B51A4D95F86A0092
:10BD700008B1082070BD0024661E2046FFF7B4F904
:10BD800010B1281980F83060641CE4B2302CF4D370
:10BD900000242046FDF702FB641CE4B20C2CF8D30F
:10BDA0000C4800210C4C4166A0F868100B49C020DB
:10BDB00081F8000401264020891FC1F800014FF4DA
:10BDC000BE70FFF7EBF9A004C4F8040385F86A60BD
:10BDD000002070BD303400200060004006E000E02C
:10BDE000034890F86A00002800D001207047000046
:10BDF000303400200121B1EB507F01D10120704788
:10BE00000020704738B50D4600F022FC040014D025
:10BE100000208DF800006846FCF770F9207928B101
:10BE20009DF80000FCF78EF9112038BD0120256037
:10BE300020719DF80000FCF785F9002038BD000056
:10BE40000179064AC1EB0111006802EB810105226C
:10BE5000C0F80025022081F82E00704734350020FC
:10BE60002DE9FC410646174600790D46334AC0EBE2
:10BE7000001102EB8104984694F82E1011B10820AD
:10BE8000BDE8FC812E4951F820103068FFF7BAFF59
:10BE900008B11120F4E7C4E900780027A76084F80E
:10BEA0002D7084F8317084F83070687B84F8380025
:10BEB0004FF00608CDE9008703233A463946286843
:10BEC000FFF77CF8CDE9008700220323114668685C
:10BED000FFF774F8D5E900123068C0F80815C0F80B
:10BEE0000C25A968C0F824152068012208B3306821
:10BEF00040F30731287B00294FEA401004DB01F1B1
:10BF0000E02181F8000405E001F00F0101F1E021DA
:10BF100081F8140D306840F30730002809DB00F089
:10BF20001F0102FA01F14009800000F1E020C0F891
:10BF3000001184F82E200020A2E7000034350020F4
:10BF400070D60200F0B585B015460E4607461C4671
:10BF5000142207496846FBF787FA8DF80160002232
:10BF6000694638460395019400F020F805B0F0BD0D
:10BF700074D602002DE9F04186B00E4680461C467C
:10BF80001546142168460C9FFBF787FA8DF801606F
:10BF9000039501940FB1202200E00022694640463B
:10BFA00000F004F806B0BDE8F081000030B4037979
:10BFB000054CC3EB031304EB830413460A460068E5
:10BFC000214630BC01F050B9343500202DE9F05F36
:10BFD000054600790B4600EB400101EBC000244907
:10BFE00001EB8004284600F045F810B11120BDE8AF
:10BFF000F09F62614FF00009C4F82090A36084F8BC
:10C0000028904FF48E784E4641462868FFF788FD09
:10C0100028684FF0010AC0F808A02146286801F0FE
:10C0200075F9606808BBD5F800B067690FE000BF1C
:10C0300094F8280008B10F2615E041465846FFF74E
:10C040006AFD0028F4D02146584601F05FF9206AC5
:10C05000B842F2D3574641462868FFF75CFD0028F6
:10C06000F9D02868C760C4F814903046BFE70000D4
:10C070009C340020007900EB400101EBC000044932
:10C0800001EB80004069002800D0012070470000CB
:10C090009C3400202DE9F04704460E4600792749DC
:10C0A00000EBC00001EB800517463046FFF7A2FE0B
:10C0B00030B1204600F044F820B11120BDE8F087EF
:10C0C0001020FBE76F61AE604FF490774FF00008EF
:10C0D00039462068FFF72FFD4FF4AC7631462068D3
:10C0E000FFF729FD2068AA686969C0F84425C0F8EF
:10C0F000481520684FF00109C0F808906868D0B969
:10C10000BA4651462068FFF711FD074631462068C0
:10C11000FFF70CFD0743F4D010B14FF00F0808E013
:10C120002068C0F80C9031462068FFF7FFFC00281B
:10C13000F9D0002068614046C0E70000C834002004
:10C140000079054900EBC00001EB80004069002840
:10C1500000D0012070470000C8340020F8B50178F5
:10C16000002956D100692B4900784870412850D1E8
:10C170002A4D00242423284A294629480094FEF702
:10C18000FDFD284901F10C00FDF7E6FF25480C30C4
:10C190000168002902DA6FF0630200E06422224E97
:10C1A0004A43B2614268002A02DA6FF0630300E09A
:10C1B00064235343F3618068002802DA6FF063035D
:10C1C00000E0642343433362174B483300299E79D0
:10C1D00000DA761C14492431002A8E61DA7900DAFB
:10C1E000521CCA610028187A00DA401C0862242315
:10C1F0000D4A29460A480094FEF7C0FD084801F0A0
:10C2000064F9094A24232432084905480094FEF7BA
:10C21000B5FDF8BDE82A0020242E002000E103002F
:10C22000042D0020182D0020D432002000F103003E
:10C2300003490860034801680029FCD070470000EA
:10C2400004E5014000E4014010B5C0B103281DD150
:10C250000F481049401AC008032101EB00400EA10D
:10C26000FFF7CAF80220FCF7EDFE04462E20FEF789
:10C270005DFF20000AD0BDE81040FBF761BE00F072
:10C28000B5FBBDE810402E20FEF750BF10BD0000EA
:10C2900028E20200B0E10200466173742061647616
:10C2A0006572746973696E672E000000007800285B
:10C2B00007D104483B21C08876DF002801D0FBF776
:10C2C0003FBE7047E82A0020F0B58BB000260196EB
:10C2D0000D4604468988406901AAFBF74DFF0AA86C
:10C2E000CDE908600227ADF82070ADF82260218901
:10C2F000A88808AAADDF002819D1A069002816D0A7
:10C300000998FCF737FD002811D0019E0EB10120DD
:10C310003070182102A8FBF7C0F88DF8087003945C
:10C32000A888ADF810000596A16902A888470BB04F
:10C33000F0BD000070B58D88027900EBC504227352
:10C34000C97BA41D012902D0022904D101E0008883
:10C3500000E04088208021886088814211D92846E9
:10C36000A5DF0126B0B1112816D0FFF7BFFB0246AA
:10C370000B480C49401AC00806EB00400AA1FFF721
:10C380003FF8A179E079814208D92846BDE870409C
:10C39000FDF7BEB96671F4E72671F2E770BD0000E3
:10C3A000B0E10200B0E1020073645F626C655F6738
:10C3B000617474635F65786368616E67655F6D74EF
:10C3C000755F72657175657374282920726574755F
:10C3D000726E65642025732E000000007CB5064651
:10C3E0008D88C88806EBC504A41D172800D2172025
:10C3F0002188814200D80846608000202071218871
:10C400002846B5DF60B1FFF771FB02460F481049BF
:10C41000401AC008012101EB00400EA1FEF7F0FF19
:10C420006079002810D1306900280DD01549D1E974
:10C430000201CDE90001ADF802506088ADF80400BA
:10C4400032696946304690477CBD0000B0E1020089
:10C45000B0E1020073645F626C655F67617474735E
:10C460005F65786368616E67655F6D74755F72653F
:10C47000706C7928292072657475726E6564202548
:10C48000732E000040D60200F0B587B00C4605467A
:10C490008E1D8988406906AAFBF76EFE1821684642
:10C4A000FAF7FBFF0195A088069AADF80800039201
:10C4B00031882B89002704F11200994202D1738937
:10C4C000022B0DD0AA8991421ED1A96900291BD047
:10C4D0008DF8007004907089ADF81400A96911E01E
:10C4E000002A11D0FCF746FC20B106990120087003
:10C4F000022002E00698077003208DF80000A96969
:10C50000002901D06846884707B0F0BD00680128BF
:10C5100005D0022803D0042801D000207047012054
:10C520007047000010B50549C20800F00703885C99
:10C5300001249C402043885410BD00009434002006
:10C540000449084490F93000082801DB01207047B5
:10C5500000207047303400200449084490F930002E
:10C56000082801D201207047002070473034002095
:10C570002DE9F84F314F05464FF0010900243819D5
:10C5800090F96010491C46D090F86000294620F0D0
:10C59000C0063046FEF784F970B3204600F050F82C
:10C5A000824668460096FEF775FD009900EB810013
:10C5B000D0F80007C0F30148B8F1020F1DD00221E6
:10C5C0003046FEF715FD68460096FEF763FD009ABB
:10C5D00009FA02F1C0F820153046FCF711FF57F8B0
:10C5E00020204AB15046BAF1030F11D0B8F1020F22
:10C5F00005D0B8F1030F07D00DE00321E0E7504666
:10C60000BAF1010F04D006E05046BAF1020F02D190
:10C61000014630469047641C042CB0D32A460221C0
:10C620000020FEF7FDFC002055F820100029A5D1C0
:10C63000401C0228F8D3BDE8F88F000030340020F9
:10C640000249084490F860008009704730340020A7
:10C650000349884201D10348704700207047000019
:10C6600000200040342C0020034802490068FEF7F7
:10C670005CB80000E42C002088D802002DE9F041CD
:10C68000234C0025234E207A012730B92248311D42
:10C690000068FEF755F8306038B10220207231682A
:10C6A000087928B101281ED116E06560BDE8F08147
:10C6B000D1E90503C01A4FF48052904200D31046CE
:10C6C000B7EB900F01D2820800E001220869C96827
:10C6D0001844194429DF03E0D1E90301084428DFA5
:10C6E00058B1112812D003213068FDF7D7F925720F
:10C6F0006560BDE8F041FFF7B7BF207C0028D5D1C9
:10C70000BDE8F04100210220FEF7E6BA2772CDE72E
:10C71000CC360020E02C002088D8020070B50546F9
:10C72000FDF741F9134C40B1D4E904024FF0807198
:10C73000411842F10000C4E9041000212846FDF729
:10C740007FF830B1606820B1606800F025FA002001
:10C75000606001212846FDF773F818B1FDF720FB52
:10C76000C4E90601284600F063FA2846BDE8704097
:10C7700000F038B8882C00202DE9F04100260E701A
:10C78000D0E902740D468046FDF70AFB381A0023F3
:10C7900064EB01011A461B1A8A4115DAB0F5350F10
:10C7A00004D3FBF7F1FB0D49421800E03A464FF481
:10C7B000960300210A48FDF702F910B10D2807D0B1
:10C7C0000AE00120BDE8F08100210548FDF72EF8C0
:10C7D000404600F0E1F928700020F3E7FFFFB400C5
:10C7E000902C0020F8B5204C064600251F48FFF786
:10C7F00043F910B3D0E90210CA4372EA000224D010
:10C80000626882B16368D3E90223891A984127D20A
:10C810006068D0E90210C94371EA000103D0616881
:10C820001248FFF718F900F04DF907466946FFF77F
:10C83000A3FFB0B1606858B10DE0606800280FD167
:10C840003046BDE8F840FDF7B6B800F03BF9CDE75B
:10C850003046FDF7ACF867609DF800000028C5D1B0
:10C86000F8BD6560C2E70000882C0020A8D6020051
:10C8700038B50021012548B1012810D003280DD179
:10C88000FFF768F9BDE83840FEF790B94FF0E020B7
:10C89000C0F88051BFF34F8FBFF36F8F38BD8DF855
:10C8A00000106846FBF72AFC064C207808B9FEF712
:10C8B0005DF9E068401CE060A5709DF80000FBF7A2
:10C8C00041FC38BD1C3400203EB504460949684689
:10C8D000FFF79AF808E000BFD0E900212046904712
:10C8E00030B16846FFF7A7F802980028F4D13EBDA2
:10C8F00011203EBDB8D802003EB50446084968463E
:10C90000FFF782F807E000BFD0E9002120469047FA
:10C910006846FFF790F802980028F5D13EBD000068
:10C92000C4D8020002498969002900D0084770472D
:10C93000843300202DE9F0410746806A144688467A
:10C94000C8B3002531E000BFB96A05EB450001EB33
:10C950008006B088801CFE2802D90C20BDE8F0813A
:10C960002288401C08F8020020881622401C80B251
:10C97000208008F800202088401C80B2208000EB36
:10C980000801308800F0D2FC2188084480B2208061
:10C99000B28842B1B16871B14044FAF765FD2088B0
:10C9A000B188084420806D1CEDB297F82C00A84295
:10C9B000CAD80020D2E7FFE70720CFE70A78062889
:10C9C00022F0FF020A7010D2DFE800F00305070929
:10C9D0000B0D002008E0112006E0212004E03120AA
:10C9E00002E0122000E022200870704710B50020FD
:10C9F000FCF728FB08B1FBF7A3FAFCF77DFA08B1B6
:10CA0000FBF79EFA33DF002803D0BDE81040FBF7A8
:10CA100097BA10BD002805D10349012048700020B5
:10CA2000FCF7BEBD704700001C34002010B5162076
:10CA3000FAF740FF48B10C4882684FF4800152B1C8
:10CA4000016821F48001016010BDBDE8104042F290
:10CA50000100FBF775BA4FF0E020C0F88011BFF37A
:10CA60004F8FBFF36F8F10BD1836002010B5162002
:10CA7000FAF720FFA0B1114890F8000440090828F7
:10CA800011D20121814011F0EC0F0CD00C488268CA
:10CA90004FF480016AB1016841F48001016010BD6A
:10CAA00042F2010001E042F20200BDE81040FBF753
:10CAB00047BA4FF0E020C0F8001110BD16E000E0CA
:10CAC000183600200148FEF7DABF0000A8D60200A1
:10CAD000C207002A03D000BF4FF00F0201E04FF061
